{
  "address": "0x16eeAf3509e6554A4C0e709Ae0cEd13D9E0FE9CB",
  "abi": [
    {
      "inputs": [
        {
          "internalType": "address",
          "name": "_easAddress",
          "type": "address"
        },
        {
          "internalType": "bytes32",
          "name": "_schemaUID",
          "type": "bytes32"
        }
      ],
      "stateMutability": "nonpayable",
      "type": "constructor"
    },
    {
      "inputs": [],
      "name": "AccessControlBadConfirmation",
      "type": "error"
    },
    {
      "inputs": [
        {
          "internalType": "address",
          "name": "account",
          "type": "address"
        },
        {
          "internalType": "bytes32",
          "name": "neededRole",
          "type": "bytes32"
        }
      ],
      "name": "AccessControlUnauthorizedAccount",
      "type": "error"
    },
    {
      "inputs": [],
      "name": "ReentrancyGuardReentrantCall",
      "type": "error"
    },
    {
      "anonymous": false,
      "inputs": [
        {
          "indexed": true,
          "internalType": "uint256",
          "name": "marketId",
          "type": "uint256"
        },
        {
          "indexed": false,
          "internalType": "bool",
          "name": "outcome",
          "type": "bool"
        },
        {
          "indexed": false,
          "internalType": "bytes32",
          "name": "attestationId",
          "type": "bytes32"
        }
      ],
      "name": "ResolutionFinalized",
      "type": "event"
    },
    {
      "anonymous": false,
      "inputs": [
        {
          "indexed": true,
          "internalType": "uint256",
          "name": "marketId",
          "type": "uint256"
        },
        {
          "indexed": false,
          "internalType": "bool",
          "name": "outcome",
          "type": "bool"
        }
      ],
      "name": "ResolutionProposed",
      "type": "event"
    },
    {
      "anonymous": false,
      "inputs": [
        {
          "indexed": true,
          "internalType": "uint256",
          "name": "marketId",
          "type": "uint256"
        },
        {
          "indexed": false,
          "internalType": "address",
          "name": "validator",
          "type": "address"
        }
      ],
      "name": "ResolutionValidated",
      "type": "event"
    },
    {
      "anonymous": false,
      "inputs": [
        {
          "indexed": true,
          "internalType": "bytes32",
          "name": "role",
          "type": "bytes32"
        },
        {
          "indexed": true,
          "internalType": "bytes32",
          "name": "previousAdminRole",
          "type": "bytes32"
        },
        {
          "indexed": true,
          "internalType": "bytes32",
          "name": "newAdminRole",
          "type": "bytes32"
        }
      ],
      "name": "RoleAdminChanged",
      "type": "event"
    },
    {
      "anonymous": false,
      "inputs": [
        {
          "indexed": true,
          "internalType": "bytes32",
          "name": "role",
          "type": "bytes32"
        },
        {
          "indexed": true,
          "internalType": "address",
          "name": "account",
          "type": "address"
        },
        {
          "indexed": true,
          "internalType": "address",
          "name": "sender",
          "type": "address"
        }
      ],
      "name": "RoleGranted",
      "type": "event"
    },
    {
      "anonymous": false,
      "inputs": [
        {
          "indexed": true,
          "internalType": "bytes32",
          "name": "role",
          "type": "bytes32"
        },
        {
          "indexed": true,
          "internalType": "address",
          "name": "account",
          "type": "address"
        },
        {
          "indexed": true,
          "internalType": "address",
          "name": "sender",
          "type": "address"
        }
      ],
      "name": "RoleRevoked",
      "type": "event"
    },
    {
      "inputs": [],
      "name": "DEFAULT_ADMIN_ROLE",
      "outputs": [
        {
          "internalType": "bytes32",
          "name": "",
          "type": "bytes32"
        }
      ],
      "stateMutability": "view",
      "type": "function"
    },
    {
      "inputs": [],
      "name": "MINIMUM_VALIDATORS",
      "outputs": [
        {
          "internalType": "uint256",
          "name": "",
          "type": "uint256"
        }
      ],
      "stateMutability": "view",
      "type": "function"
    },
    {
      "inputs": [],
      "name": "SCHEMA_UID",
      "outputs": [
        {
          "internalType": "bytes32",
          "name": "",
          "type": "bytes32"
        }
      ],
      "stateMutability": "view",
      "type": "function"
    },
    {
      "inputs": [],
      "name": "VALIDATOR_ROLE",
      "outputs": [
        {
          "internalType": "bytes32",
          "name": "",
          "type": "bytes32"
        }
      ],
      "stateMutability": "view",
      "type": "function"
    },
    {
      "inputs": [
        {
          "internalType": "bytes32",
          "name": "uid",
          "type": "bytes32"
        }
      ],
      "name": "getAttestation",
      "outputs": [
        {
          "components": [
            {
              "internalType": "bytes32",
              "name": "uid",
              "type": "bytes32"
            },
            {
              "internalType": "bytes32",
              "name": "schema",
              "type": "bytes32"
            },
            {
              "internalType": "uint64",
              "name": "time",
              "type": "uint64"
            },
            {
              "internalType": "uint64",
              "name": "expirationTime",
              "type": "uint64"
            },
            {
              "internalType": "uint64",
              "name": "revocationTime",
              "type": "uint64"
            },
            {
              "internalType": "bytes32",
              "name": "refUID",
              "type": "bytes32"
            },
            {
              "internalType": "address",
              "name": "recipient",
              "type": "address"
            },
            {
              "internalType": "address",
              "name": "attester",
              "type": "address"
            },
            {
              "internalType": "bool",
              "name": "revocable",
              "type": "bool"
            },
            {
              "internalType": "bytes",
              "name": "data",
              "type": "bytes"
            }
          ],
          "internalType": "struct MarketResolutionValidator.AttestationData",
          "name": "",
          "type": "tuple"
        }
      ],
      "stateMutability": "view",
      "type": "function"
    },
    {
      "inputs": [
        {
          "internalType": "bytes32",
          "name": "role",
          "type": "bytes32"
        }
      ],
      "name": "getRoleAdmin",
      "outputs": [
        {
          "internalType": "bytes32",
          "name": "",
          "type": "bytes32"
        }
      ],
      "stateMutability": "view",
      "type": "function"
    },
    {
      "inputs": [
        {
          "internalType": "bytes32",
          "name": "role",
          "type": "bytes32"
        },
        {
          "internalType": "address",
          "name": "account",
          "type": "address"
        }
      ],
      "name": "grantRole",
      "outputs": [],
      "stateMutability": "nonpayable",
      "type": "function"
    },
    {
      "inputs": [
        {
          "internalType": "bytes32",
          "name": "role",
          "type": "bytes32"
        },
        {
          "internalType": "address",
          "name": "account",
          "type": "address"
        }
      ],
      "name": "hasRole",
      "outputs": [
        {
          "internalType": "bool",
          "name": "",
          "type": "bool"
        }
      ],
      "stateMutability": "view",
      "type": "function"
    },
    {
      "inputs": [
        {
          "internalType": "bytes32",
          "name": "role",
          "type": "bytes32"
        },
        {
          "internalType": "address",
          "name": "callerConfirmation",
          "type": "address"
        }
      ],
      "name": "renounceRole",
      "outputs": [],
      "stateMutability": "nonpayable",
      "type": "function"
    },
    {
      "inputs": [
        {
          "internalType": "uint256",
          "name": "",
          "type": "uint256"
        }
      ],
      "name": "resolutions",
      "outputs": [
        {
          "internalType": "uint256",
          "name": "marketId",
          "type": "uint256"
        },
        {
          "internalType": "bool",
          "name": "outcome",
          "type": "bool"
        },
        {
          "internalType": "uint256",
          "name": "validationCount",
          "type": "uint256"
        },
        {
          "internalType": "bool",
          "name": "isFinalized",
          "type": "bool"
        },
        {
          "internalType": "bytes32",
          "name": "attestationId",
          "type": "bytes32"
        }
      ],
      "stateMutability": "view",
      "type": "function"
    },
    {
      "inputs": [
        {
          "internalType": "bytes32",
          "name": "role",
          "type": "bytes32"
        },
        {
          "internalType": "address",
          "name": "account",
          "type": "address"
        }
      ],
      "name": "revokeRole",
      "outputs": [],
      "stateMutability": "nonpayable",
      "type": "function"
    },
    {
      "inputs": [
        {
          "internalType": "bytes4",
          "name": "interfaceId",
          "type": "bytes4"
        }
      ],
      "name": "supportsInterface",
      "outputs": [
        {
          "internalType": "bool",
          "name": "",
          "type": "bool"
        }
      ],
      "stateMutability": "view",
      "type": "function"
    },
    {
      "inputs": [
        {
          "internalType": "uint256",
          "name": "marketId",
          "type": "uint256"
        },
        {
          "internalType": "bool",
          "name": "outcome",
          "type": "bool"
        }
      ],
      "name": "validateResolution",
      "outputs": [],
      "stateMutability": "nonpayable",
      "type": "function"
    },
    {
      "inputs": [
        {
          "internalType": "bytes32",
          "name": "uid",
          "type": "bytes32"
        }
      ],
      "name": "verifyAttestation",
      "outputs": [
        {
          "internalType": "bool",
          "name": "",
          "type": "bool"
        }
      ],
      "stateMutability": "view",
      "type": "function"
    }
  ],
  "transactionHash": "0xef962ad5a99ff17502422602d9bf98f1f5d394a1b43783c5e9732d0044f365a3",
  "args": [
    "0xC2679fBD37d54388Ce493F1DB75320D236e1815e",
    "0xd5f095641d19dda36e364962d2893c80e086b6a8c34d0e1ae3a72f92118f50c8"
  ],
  "numDeployments": 1,
  "solcInputHash": "a373533cb58f7cf8c130dd6c1e830ac5",
  "bytecode": "0x60c060405234801561001057600080fd5b5060405161106a38038061106a83398101604081905261002f91610104565b600180556001600160a01b03821660a0526080819052610050600033610058565b50505061013e565b6000828152602081815260408083206001600160a01b038516845290915281205460ff166100fa576000838152602081815260408083206001600160a01b03861684529091529020805460ff191660011790556100b23390565b6001600160a01b0316826001600160a01b0316847f2f8788117e7eff1d82e926ec794901d17c78024a50270940304540a733656f0d60405160405180910390a45060016100fe565b5060005b92915050565b6000806040838503121561011757600080fd5b82516001600160a01b038116811461012e57600080fd5b6020939093015192949293505050565b60805160a051610ef2610178600039600081816102f90152818161058701526107fe01526000818161012f01526107c50152610ef26000f3fe608060405234801561001057600080fd5b50600436106100ea5760003560e01c806391d148541161008c578063a4b7f5ce11610066578063a4b7f5ce146101f8578063c49baebe14610267578063d547741f1461028e578063d947282f146102a157600080fd5b806391d14854146101bd578063a217fddf146101d0578063a3112a64146101d857600080fd5b8063248a9ca3116100c8578063248a9ca31461015f5780632cb9b3bf146101825780632f2ff15d1461019757806336568abe146101aa57600080fd5b806301ffc9a7146100ef57806308f4695714610117578063102954e21461012a575b600080fd5b6101026100fd366004610a17565b6102a9565b60405190151581526020015b60405180910390f35b610102610125366004610a48565b6102e0565b6101517f000000000000000000000000000000000000000000000000000000000000000081565b60405190815260200161010e565b61015161016d366004610a48565b60009081526020819052604090206001015490565b610195610190366004610a6f565b61036c565b005b6101956101a5366004610ab4565b610491565b6101956101b8366004610ab4565b6104bc565b6101026101cb366004610ab4565b6104ef565b610151600081565b6101eb6101e6366004610a48565b610518565b60405161010e9190610b29565b61023d610206366004610a48565b600260208190526000918252604090912080546001820154928201546004830154600590930154919360ff90811693919291169085565b6040805195865293151560208601529284019190915215156060830152608082015260a00161010e565b6101517f21702c8af46127c7fa207f89d0b0a8441bb32959a0ac7df790e9ab1a25c9892681565b61019561029c366004610ab4565b61069b565b610151600381565b60006001600160e01b03198216637965db0b60e01b14806102da57506301ffc9a760e01b6001600160e01b03198316145b92915050565b60405163e30bb56360e01b8152600481018290526000907f00000000000000000000000000000000000000000000000000000000000000006001600160a01b03169063e30bb56390602401602060405180830381865afa158015610348573d6000803e3d6000fd5b505050506040513d601f19601f820116820180604052508101906102da9190610c03565b7f21702c8af46127c7fa207f89d0b0a8441bb32959a0ac7df790e9ab1a25c98926610396816106c0565b61039e6106cd565b6000838152600260209081526040808320338452600381019092529091205460ff16156104065760405162461bcd60e51b8152602060048201526011602482015270105b1c9958591e481d985b1a59185d1959607a1b60448201526064015b60405180910390fd5b3360009081526003820160205260408120805460ff191660011790556002820180549161043283610c20565b9190505550600381600201541061044d5761044d84846106f7565b60405133815284907f0b50c24cbf733d1ae7776bd80cb5e6c8a21847f083ba296492fce8cb16fd56bf9060200160405180910390a25061048c60018055565b505050565b6000828152602081905260409020600101546104ac816106c0565b6104b683836108dd565b50505050565b6001600160a01b03811633146104e55760405163334bd91960e11b815260040160405180910390fd5b61048c828261096f565b6000918252602082815260408084206001600160a01b0393909316845291905290205460ff1690565b604080516101408101825260008082526020820181905281830181905260608083018290526080830182905260a0830182905260c0830182905260e08301829052610100830182905261012083015291516328c44a9960e21b8152600481018490529091906001600160a01b037f0000000000000000000000000000000000000000000000000000000000000000169063a3112a6490602401600060405180830381865afa1580156105ce573d6000803e3d6000fd5b505050506040513d6000823e601f3d908101601f191682016040526105f69190810190610d29565b90506040518061014001604052808481526020018260200151815260200182604001516001600160401b0316815260200182606001516001600160401b0316815260200182608001516001600160401b031681526020018260a0015181526020018260c001516001600160a01b031681526020018260e001516001600160a01b0316815260200182610100015115158152602001826101200151815250915050919050565b6000828152602081905260409020600101546106b6816106c0565b6104b6838361096f565b6106ca81336109da565b50565b6002600154036106f057604051633ee5aeb560e01b815260040160405180910390fd5b6002600155565b6000828152600260205260409020600481015460ff161561074e5760405162461bcd60e51b8152602060048201526011602482015270105b1c9958591e48199a5b985b1a5e9959607a1b60448201526064016103fd565b60008383836002015442604051602001610781949392919093845291151560208401526040830152606082015260800190565b60408051601f1981840301815260c08301825260008084526020848101829052600185850152606085018290526080850183905260a08501829052835180850185527f00000000000000000000000000000000000000000000000000000000000000008152908101859052925163f17325e760e01b8152919450907f00000000000000000000000000000000000000000000000000000000000000006001600160a01b03169063f17325e79061083b908590600401610e21565b6020604051808303816000875af115801561085a573d6000803e3d6000fd5b505050506040513d601f19601f8201168201806040525081019061087e9190610ea3565b60048601805460ff19166001179055600586018190556040805188151581526020810183905291925088917fe4540140b57cbdd8b9185ce181db475dabc226cab4b1916421a4a3a43031e072910160405180910390a250505050505050565b60006108e983836104ef565b610967576000838152602081815260408083206001600160a01b03861684529091529020805460ff1916600117905561091f3390565b6001600160a01b0316826001600160a01b0316847f2f8788117e7eff1d82e926ec794901d17c78024a50270940304540a733656f0d60405160405180910390a45060016102da565b5060006102da565b600061097b83836104ef565b15610967576000838152602081815260408083206001600160a01b0386168085529252808320805460ff1916905551339286917ff6391f5c32d9c69d2a47ea670b442974b53935d1edc7fd64eb21e047a839171b9190a45060016102da565b6109e482826104ef565b610a135760405163e2517d3f60e01b81526001600160a01b0382166004820152602481018390526044016103fd565b5050565b600060208284031215610a2957600080fd5b81356001600160e01b031981168114610a4157600080fd5b9392505050565b600060208284031215610a5a57600080fd5b5035919050565b80151581146106ca57600080fd5b60008060408385031215610a8257600080fd5b823591506020830135610a9481610a61565b809150509250929050565b6001600160a01b03811681146106ca57600080fd5b60008060408385031215610ac757600080fd5b823591506020830135610a9481610a9f565b60005b83811015610af4578181015183820152602001610adc565b50506000910152565b60008151808452610b15816020860160208601610ad9565b601f01601f19169290920160200192915050565b60208152815160208201526020820151604082015260006040830151610b5a60608401826001600160401b03169052565b5060608301516001600160401b03811660808401525060808301516001600160401b03811660a08401525060a083015160c083015260c0830151610ba960e08401826001600160a01b03169052565b5060e08301516001600160a01b038116610100840152506101008301518015156101208401525061012083015161014080840152610beb610160840182610afd565b949350505050565b8051610bfe81610a61565b919050565b600060208284031215610c1557600080fd5b8151610a4181610a61565b600060018201610c4057634e487b7160e01b600052601160045260246000fd5b5060010190565b634e487b7160e01b600052604160045260246000fd5b60405161014081016001600160401b0381118282101715610c8057610c80610c47565b60405290565b80516001600160401b0381168114610bfe57600080fd5b8051610bfe81610a9f565b600082601f830112610cb957600080fd5b81516001600160401b03811115610cd257610cd2610c47565b604051601f8201601f19908116603f011681016001600160401b0381118282101715610d0057610d00610c47565b604052818152838201602001851015610d1857600080fd5b610beb826020830160208701610ad9565b600060208284031215610d3b57600080fd5b81516001600160401b03811115610d5157600080fd5b82016101408185031215610d6457600080fd5b610d6c610c5d565b8151815260208083015190820152610d8660408301610c86565b6040820152610d9760608301610c86565b6060820152610da860808301610c86565b608082015260a08281015190820152610dc360c08301610c9d565b60c0820152610dd460e08301610c9d565b60e0820152610de66101008301610bf3565b6101008201526101208201516001600160401b03811115610e0657600080fd5b610e1286828501610ca8565b61012083015250949350505050565b60208152815160208201526000602083015160408084015260018060a01b0381511660608401526001600160401b0360208201511660808401526040810151151560a0840152606081015160c0840152608081015160c060e0850152610e8b610120850182610afd565b905060a0820151610100850152809250505092915050565b600060208284031215610eb557600080fd5b505191905056fea26469706673582212203597aae570bacf850f59d423d99d723b14cfe07c89307e8cedb0f805f0a4f86c64736f6c634300081b0033",
  "devdoc": {
    "errors": {
      "AccessControlBadConfirmation()": [
        {
          "details": "The caller of a function is not the expected one. NOTE: Don't confuse with {AccessControlUnauthorizedAccount}."
        }
      ],
      "AccessControlUnauthorizedAccount(address,bytes32)": [
        {
          "details": "The `account` is missing a role."
        }
      ],
      "ReentrancyGuardReentrantCall()": [
        {
          "details": "Unauthorized reentrant call."
        }
      ]
    },
    "events": {
      "RoleAdminChanged(bytes32,bytes32,bytes32)": {
        "details": "Emitted when `newAdminRole` is set as ``role``'s admin role, replacing `previousAdminRole` `DEFAULT_ADMIN_ROLE` is the starting admin for all roles, despite {RoleAdminChanged} not being emitted signaling this."
      },
      "RoleGranted(bytes32,address,address)": {
        "details": "Emitted when `account` is granted `role`. `sender` is the account that originated the contract call, an admin role bearer except when using {AccessControl-_setupRole}."
      },
      "RoleRevoked(bytes32,address,address)": {
        "details": "Emitted when `account` is revoked `role`. `sender` is the account that originated the contract call:   - if using `revokeRole`, it is the admin role bearer   - if using `renounceRole`, it is the role bearer (i.e. `account`)"
      }
    },
    "kind": "dev",
    "methods": {
      "getRoleAdmin(bytes32)": {
        "details": "Returns the admin role that controls `role`. See {grantRole} and {revokeRole}. To change a role's admin, use {_setRoleAdmin}."
      },
      "grantRole(bytes32,address)": {
        "details": "Grants `role` to `account`. If `account` had not been already granted `role`, emits a {RoleGranted} event. Requirements: - the caller must have ``role``'s admin role. May emit a {RoleGranted} event."
      },
      "hasRole(bytes32,address)": {
        "details": "Returns `true` if `account` has been granted `role`."
      },
      "renounceRole(bytes32,address)": {
        "details": "Revokes `role` from the calling account. Roles are often managed via {grantRole} and {revokeRole}: this function's purpose is to provide a mechanism for accounts to lose their privileges if they are compromised (such as when a trusted device is misplaced). If the calling account had been revoked `role`, emits a {RoleRevoked} event. Requirements: - the caller must be `callerConfirmation`. May emit a {RoleRevoked} event."
      },
      "revokeRole(bytes32,address)": {
        "details": "Revokes `role` from `account`. If `account` had been granted `role`, emits a {RoleRevoked} event. Requirements: - the caller must have ``role``'s admin role. May emit a {RoleRevoked} event."
      },
      "supportsInterface(bytes4)": {
        "details": "See {IERC165-supportsInterface}."
      }
    },
    "version": 1
  },
  "userdoc": {
    "kind": "user",
    "methods": {},
    "version": 1
  },
  "storageLayout": {
    "storage": [
      {
        "astId": 916,
        "contract": "contracts/marketresolutionvalidator.sol:MarketResolutionValidator",
        "label": "_roles",
        "offset": 0,
        "slot": "0",
        "type": "t_mapping(t_bytes32,t_struct(RoleData)911_storage)"
      },
      {
        "astId": 1652,
        "contract": "contracts/marketresolutionvalidator.sol:MarketResolutionValidator",
        "label": "_status",
        "offset": 0,
        "slot": "1",
        "type": "t_uint256"
      },
      {
        "astId": 3569,
        "contract": "contracts/marketresolutionvalidator.sol:MarketResolutionValidator",
        "label": "resolutions",
        "offset": 0,
        "slot": "2",
        "type": "t_mapping(t_uint256,t_struct(Resolution)3543_storage)"
      }
    ],
    "types": {
      "t_address": {
        "encoding": "inplace",
        "label": "address",
        "numberOfBytes": "20"
      },
      "t_bool": {
        "encoding": "inplace",
        "label": "bool",
        "numberOfBytes": "1"
      },
      "t_bytes32": {
        "encoding": "inplace",
        "label": "bytes32",
        "numberOfBytes": "32"
      },
      "t_mapping(t_address,t_bool)": {
        "encoding": "mapping",
        "key": "t_address",
        "label": "mapping(address => bool)",
        "numberOfBytes": "32",
        "value": "t_bool"
      },
      "t_mapping(t_bytes32,t_struct(RoleData)911_storage)": {
        "encoding": "mapping",
        "key": "t_bytes32",
        "label": "mapping(bytes32 => struct AccessControl.RoleData)",
        "numberOfBytes": "32",
        "value": "t_struct(RoleData)911_storage"
      },
      "t_mapping(t_uint256,t_struct(Resolution)3543_storage)": {
        "encoding": "mapping",
        "key": "t_uint256",
        "label": "mapping(uint256 => struct MarketResolutionValidator.Resolution)",
        "numberOfBytes": "32",
        "value": "t_struct(Resolution)3543_storage"
      },
      "t_struct(Resolution)3543_storage": {
        "encoding": "inplace",
        "label": "struct MarketResolutionValidator.Resolution",
        "members": [
          {
            "astId": 3530,
            "contract": "contracts/marketresolutionvalidator.sol:MarketResolutionValidator",
            "label": "marketId",
            "offset": 0,
            "slot": "0",
            "type": "t_uint256"
          },
          {
            "astId": 3532,
            "contract": "contracts/marketresolutionvalidator.sol:MarketResolutionValidator",
            "label": "outcome",
            "offset": 0,
            "slot": "1",
            "type": "t_bool"
          },
          {
            "astId": 3534,
            "contract": "contracts/marketresolutionvalidator.sol:MarketResolutionValidator",
            "label": "validationCount",
            "offset": 0,
            "slot": "2",
            "type": "t_uint256"
          },
          {
            "astId": 3538,
            "contract": "contracts/marketresolutionvalidator.sol:MarketResolutionValidator",
            "label": "hasValidated",
            "offset": 0,
            "slot": "3",
            "type": "t_mapping(t_address,t_bool)"
          },
          {
            "astId": 3540,
            "contract": "contracts/marketresolutionvalidator.sol:MarketResolutionValidator",
            "label": "isFinalized",
            "offset": 0,
            "slot": "4",
            "type": "t_bool"
          },
          {
            "astId": 3542,
            "contract": "contracts/marketresolutionvalidator.sol:MarketResolutionValidator",
            "label": "attestationId",
            "offset": 0,
            "slot": "5",
            "type": "t_bytes32"
          }
        ],
        "numberOfBytes": "192"
      },
      "t_struct(RoleData)911_storage": {
        "encoding": "inplace",
        "label": "struct AccessControl.RoleData",
        "members": [
          {
            "astId": 908,
            "contract": "contracts/marketresolutionvalidator.sol:MarketResolutionValidator",
            "label": "hasRole",
            "offset": 0,
            "slot": "0",
            "type": "t_mapping(t_address,t_bool)"
          },
          {
            "astId": 910,
            "contract": "contracts/marketresolutionvalidator.sol:MarketResolutionValidator",
            "label": "adminRole",
            "offset": 0,
            "slot": "1",
            "type": "t_bytes32"
          }
        ],
        "numberOfBytes": "64"
      },
      "t_uint256": {
        "encoding": "inplace",
        "label": "uint256",
        "numberOfBytes": "32"
      }
    }
  }
}