{
  "address": "0xC2F76FdF8fB05159BC290E8bea9A554C5b6784f1",
  "abi": [
    {
      "inputs": [
        {
          "internalType": "address",
          "name": "_stakingToken",
          "type": "address"
        }
      ],
      "stateMutability": "nonpayable",
      "type": "constructor"
    },
    {
      "inputs": [],
      "name": "EnforcedPause",
      "type": "error"
    },
    {
      "inputs": [],
      "name": "ExpectedPause",
      "type": "error"
    },
    {
      "inputs": [
        {
          "internalType": "address",
          "name": "owner",
          "type": "address"
        }
      ],
      "name": "OwnableInvalidOwner",
      "type": "error"
    },
    {
      "inputs": [
        {
          "internalType": "address",
          "name": "account",
          "type": "address"
        }
      ],
      "name": "OwnableUnauthorizedAccount",
      "type": "error"
    },
    {
      "inputs": [],
      "name": "ReentrancyGuardReentrantCall",
      "type": "error"
    },
    {
      "anonymous": false,
      "inputs": [
        {
          "indexed": true,
          "internalType": "uint64",
          "name": "marketId",
          "type": "uint64"
        },
        {
          "indexed": true,
          "internalType": "address",
          "name": "creator",
          "type": "address"
        },
        {
          "indexed": false,
          "internalType": "string",
          "name": "title",
          "type": "string"
        },
        {
          "indexed": false,
          "internalType": "enum perennialprediction.MarketType",
          "name": "marketType",
          "type": "uint8"
        },
        {
          "indexed": false,
          "internalType": "uint64",
          "name": "endTime",
          "type": "uint64"
        },
        {
          "indexed": false,
          "internalType": "bool",
          "name": "isHyperLocal",
          "type": "bool"
        },
        {
          "indexed": false,
          "internalType": "int256",
          "name": "latitude",
          "type": "int256"
        },
        {
          "indexed": false,
          "internalType": "int256",
          "name": "longitude",
          "type": "int256"
        }
      ],
      "name": "MarketCreated",
      "type": "event"
    },
    {
      "anonymous": false,
      "inputs": [
        {
          "indexed": true,
          "internalType": "address",
          "name": "creator",
          "type": "address"
        }
      ],
      "name": "MarketCreatorAdded",
      "type": "event"
    },
    {
      "anonymous": false,
      "inputs": [
        {
          "indexed": true,
          "internalType": "uint64",
          "name": "marketId",
          "type": "uint64"
        },
        {
          "indexed": false,
          "internalType": "bool",
          "name": "outcome",
          "type": "bool"
        }
      ],
      "name": "MarketResolved",
      "type": "event"
    },
    {
      "anonymous": false,
      "inputs": [
        {
          "indexed": true,
          "internalType": "address",
          "name": "previousOwner",
          "type": "address"
        },
        {
          "indexed": true,
          "internalType": "address",
          "name": "newOwner",
          "type": "address"
        }
      ],
      "name": "OwnershipTransferred",
      "type": "event"
    },
    {
      "anonymous": false,
      "inputs": [
        {
          "indexed": false,
          "internalType": "address",
          "name": "account",
          "type": "address"
        }
      ],
      "name": "Paused",
      "type": "event"
    },
    {
      "anonymous": false,
      "inputs": [
        {
          "indexed": true,
          "internalType": "address",
          "name": "user",
          "type": "address"
        },
        {
          "indexed": false,
          "internalType": "uint128",
          "name": "newScore",
          "type": "uint128"
        }
      ],
      "name": "ReputationUpdated",
      "type": "event"
    },
    {
      "anonymous": false,
      "inputs": [
        {
          "indexed": true,
          "internalType": "uint64",
          "name": "marketId",
          "type": "uint64"
        },
        {
          "indexed": true,
          "internalType": "address",
          "name": "user",
          "type": "address"
        },
        {
          "indexed": false,
          "internalType": "uint128",
          "name": "amount",
          "type": "uint128"
        }
      ],
      "name": "RewardsClaimed",
      "type": "event"
    },
    {
      "anonymous": false,
      "inputs": [
        {
          "indexed": true,
          "internalType": "uint64",
          "name": "marketId",
          "type": "uint64"
        },
        {
          "indexed": true,
          "internalType": "address",
          "name": "user",
          "type": "address"
        },
        {
          "indexed": false,
          "internalType": "bool",
          "name": "isYes",
          "type": "bool"
        },
        {
          "indexed": false,
          "internalType": "uint128",
          "name": "amount",
          "type": "uint128"
        },
        {
          "indexed": false,
          "internalType": "uint128",
          "name": "price",
          "type": "uint128"
        },
        {
          "indexed": false,
          "internalType": "bool",
          "name": "isBuy",
          "type": "bool"
        }
      ],
      "name": "SharesTraded",
      "type": "event"
    },
    {
      "anonymous": false,
      "inputs": [
        {
          "indexed": false,
          "internalType": "address",
          "name": "account",
          "type": "address"
        }
      ],
      "name": "Unpaused",
      "type": "event"
    },
    {
      "inputs": [],
      "name": "EARLY_UNSTAKE_PENALTY",
      "outputs": [
        {
          "internalType": "uint64",
          "name": "",
          "type": "uint64"
        }
      ],
      "stateMutability": "view",
      "type": "function"
    },
    {
      "inputs": [],
      "name": "MAX_STAKE_PERCENTAGE",
      "outputs": [
        {
          "internalType": "uint64",
          "name": "",
          "type": "uint64"
        }
      ],
      "stateMutability": "view",
      "type": "function"
    },
    {
      "inputs": [],
      "name": "MIN_STAKE_PERIOD",
      "outputs": [
        {
          "internalType": "uint64",
          "name": "",
          "type": "uint64"
        }
      ],
      "stateMutability": "view",
      "type": "function"
    },
    {
      "inputs": [],
      "name": "REPUTATION_THRESHOLD",
      "outputs": [
        {
          "internalType": "uint64",
          "name": "",
          "type": "uint64"
        }
      ],
      "stateMutability": "view",
      "type": "function"
    },
    {
      "inputs": [
        {
          "internalType": "address",
          "name": "_creator",
          "type": "address"
        }
      ],
      "name": "addMarketCreator",
      "outputs": [],
      "stateMutability": "nonpayable",
      "type": "function"
    },
    {
      "inputs": [
        {
          "internalType": "uint64",
          "name": "_marketId",
          "type": "uint64"
        }
      ],
      "name": "claimRewards",
      "outputs": [],
      "stateMutability": "nonpayable",
      "type": "function"
    },
    {
      "inputs": [
        {
          "components": [
            {
              "internalType": "string",
              "name": "title",
              "type": "string"
            },
            {
              "internalType": "string",
              "name": "description",
              "type": "string"
            },
            {
              "internalType": "uint64",
              "name": "endTime",
              "type": "uint64"
            },
            {
              "internalType": "bool",
              "name": "isHyperLocal",
              "type": "bool"
            },
            {
              "internalType": "int256",
              "name": "latitude",
              "type": "int256"
            },
            {
              "internalType": "int256",
              "name": "longitude",
              "type": "int256"
            },
            {
              "internalType": "enum perennialprediction.MarketType",
              "name": "marketType",
              "type": "uint8"
            },
            {
              "internalType": "uint128",
              "name": "minStake",
              "type": "uint128"
            },
            {
              "internalType": "uint128",
              "name": "maxStake",
              "type": "uint128"
            },
            {
              "internalType": "uint64",
              "name": "reputationRequired",
              "type": "uint64"
            }
          ],
          "internalType": "struct perennialprediction.MarketParams",
          "name": "params",
          "type": "tuple"
        }
      ],
      "name": "createMarket",
      "outputs": [
        {
          "internalType": "uint64",
          "name": "",
          "type": "uint64"
        }
      ],
      "stateMutability": "nonpayable",
      "type": "function"
    },
    {
      "inputs": [
        {
          "internalType": "address",
          "name": "_token",
          "type": "address"
        },
        {
          "internalType": "uint256",
          "name": "_amount",
          "type": "uint256"
        }
      ],
      "name": "emergencyWithdraw",
      "outputs": [],
      "stateMutability": "nonpayable",
      "type": "function"
    },
    {
      "inputs": [
        {
          "internalType": "address",
          "name": "",
          "type": "address"
        }
      ],
      "name": "isMarketCreator",
      "outputs": [
        {
          "internalType": "bool",
          "name": "",
          "type": "bool"
        }
      ],
      "stateMutability": "view",
      "type": "function"
    },
    {
      "inputs": [
        {
          "internalType": "uint256",
          "name": "",
          "type": "uint256"
        }
      ],
      "name": "marketCores",
      "outputs": [
        {
          "internalType": "string",
          "name": "title",
          "type": "string"
        },
        {
          "internalType": "string",
          "name": "description",
          "type": "string"
        },
        {
          "internalType": "uint64",
          "name": "endTime",
          "type": "uint64"
        },
        {
          "internalType": "bool",
          "name": "isResolved",
          "type": "bool"
        },
        {
          "internalType": "bool",
          "name": "isHyperLocal",
          "type": "bool"
        },
        {
          "internalType": "enum perennialprediction.MarketType",
          "name": "marketType",
          "type": "uint8"
        }
      ],
      "stateMutability": "view",
      "type": "function"
    },
    {
      "inputs": [],
      "name": "marketCount",
      "outputs": [
        {
          "internalType": "uint64",
          "name": "",
          "type": "uint64"
        }
      ],
      "stateMutability": "view",
      "type": "function"
    },
    {
      "inputs": [
        {
          "internalType": "uint256",
          "name": "",
          "type": "uint256"
        }
      ],
      "name": "marketData",
      "outputs": [
        {
          "internalType": "uint128",
          "name": "yesShares",
          "type": "uint128"
        },
        {
          "internalType": "uint128",
          "name": "noShares",
          "type": "uint128"
        },
        {
          "internalType": "uint128",
          "name": "totalStake",
          "type": "uint128"
        },
        {
          "internalType": "uint128",
          "name": "minStake",
          "type": "uint128"
        },
        {
          "internalType": "uint128",
          "name": "maxStake",
          "type": "uint128"
        },
        {
          "internalType": "uint64",
          "name": "reputationRequired",
          "type": "uint64"
        },
        {
          "internalType": "bool",
          "name": "outcome",
          "type": "bool"
        }
      ],
      "stateMutability": "view",
      "type": "function"
    },
    {
      "inputs": [
        {
          "internalType": "uint256",
          "name": "",
          "type": "uint256"
        }
      ],
      "name": "marketLocations",
      "outputs": [
        {
          "internalType": "int256",
          "name": "latitude",
          "type": "int256"
        },
        {
          "internalType": "int256",
          "name": "longitude",
          "type": "int256"
        },
        {
          "internalType": "uint128",
          "name": "poolId",
          "type": "uint128"
        },
        {
          "internalType": "address",
          "name": "creator",
          "type": "address"
        }
      ],
      "stateMutability": "view",
      "type": "function"
    },
    {
      "inputs": [],
      "name": "owner",
      "outputs": [
        {
          "internalType": "address",
          "name": "",
          "type": "address"
        }
      ],
      "stateMutability": "view",
      "type": "function"
    },
    {
      "inputs": [],
      "name": "paused",
      "outputs": [
        {
          "internalType": "bool",
          "name": "",
          "type": "bool"
        }
      ],
      "stateMutability": "view",
      "type": "function"
    },
    {
      "inputs": [
        {
          "internalType": "uint256",
          "name": "",
          "type": "uint256"
        },
        {
          "internalType": "address",
          "name": "",
          "type": "address"
        }
      ],
      "name": "positions",
      "outputs": [
        {
          "internalType": "uint128",
          "name": "yesShares",
          "type": "uint128"
        },
        {
          "internalType": "uint128",
          "name": "noShares",
          "type": "uint128"
        },
        {
          "internalType": "uint128",
          "name": "stakedAmount",
          "type": "uint128"
        },
        {
          "internalType": "uint64",
          "name": "lastInteractionTime",
          "type": "uint64"
        },
        {
          "internalType": "bool",
          "name": "hasClaimedRewards",
          "type": "bool"
        }
      ],
      "stateMutability": "view",
      "type": "function"
    },
    {
      "inputs": [],
      "name": "renounceOwnership",
      "outputs": [],
      "stateMutability": "nonpayable",
      "type": "function"
    },
    {
      "inputs": [
        {
          "internalType": "uint64",
          "name": "_marketId",
          "type": "uint64"
        },
        {
          "internalType": "bool",
          "name": "_outcome",
          "type": "bool"
        }
      ],
      "name": "resolveMarket",
      "outputs": [],
      "stateMutability": "nonpayable",
      "type": "function"
    },
    {
      "inputs": [],
      "name": "stakingToken",
      "outputs": [
        {
          "internalType": "contract IERC20",
          "name": "",
          "type": "address"
        }
      ],
      "stateMutability": "view",
      "type": "function"
    },
    {
      "inputs": [
        {
          "internalType": "uint64",
          "name": "_marketId",
          "type": "uint64"
        },
        {
          "internalType": "bool",
          "name": "_isYes",
          "type": "bool"
        },
        {
          "internalType": "uint128",
          "name": "_amount",
          "type": "uint128"
        },
        {
          "internalType": "bool",
          "name": "_isBuy",
          "type": "bool"
        }
      ],
      "name": "tradeShares",
      "outputs": [],
      "stateMutability": "nonpayable",
      "type": "function"
    },
    {
      "inputs": [
        {
          "internalType": "address",
          "name": "newOwner",
          "type": "address"
        }
      ],
      "name": "transferOwnership",
      "outputs": [],
      "stateMutability": "nonpayable",
      "type": "function"
    },
    {
      "inputs": [
        {
          "internalType": "address",
          "name": "",
          "type": "address"
        }
      ],
      "name": "userReputations",
      "outputs": [
        {
          "internalType": "uint128",
          "name": "score",
          "type": "uint128"
        },
        {
          "internalType": "uint64",
          "name": "marketsCreated",
          "type": "uint64"
        },
        {
          "internalType": "uint64",
          "name": "successfulPredictions",
          "type": "uint64"
        },
        {
          "internalType": "uint128",
          "name": "totalStaked",
          "type": "uint128"
        },
        {
          "internalType": "uint64",
          "name": "lastUpdateTime",
          "type": "uint64"
        }
      ],
      "stateMutability": "view",
      "type": "function"
    },
    {
      "stateMutability": "payable",
      "type": "receive"
    }
  ],
  "transactionHash": "0xb62b5de0c8d3239b6379589b1e4d130977630b9484fc5873c47a778243d392d6",
  "args": [
    "0x94a9d9ac8a22534e3faca9f4e7f2e2cf85d5e4c8"
  ],
  "numDeployments": 2,
  "solcInputHash": "039f70708e0d65dec5108a0f9260087d",
  "bytecode": "0x60a060405234801561001057600080fd5b5060405161300438038061300483398101604081905261002f916100ce565b338061005557604051631e4fbdf760e01b81526000600482015260240160405180910390fd5b61005e8161007e565b50600180556002805460ff191690556001600160a01b03166080526100fe565b600080546001600160a01b038381166001600160a01b0319831681178455604051919092169283917f8be0079c531659141344cd1fd0a4f28419497f9722a3daafe3b4186f6b6457e09190a35050565b6000602082840312156100e057600080fd5b81516001600160a01b03811681146100f757600080fd5b9392505050565b608051612ecf610135600039600081816103130152818161135a01528181611818015281816119590152611c7d0152612ecf6000f3fe6080604052600436106101395760003560e01c80638da5cb5b116100ab578063e684d7181161006f578063e684d718146103e2578063ec97908214610496578063f2fde38b146104bb578063f8a9482f146104db578063f8b11691146105a4578063f97b7a3b1461064557600080fd5b80638da5cb5b1461034d57806392e48aac1461036b57806395ccea671461038b578063a76e2ca5146103ab578063d342f484146103cb57600080fd5b80634277ca47116100fd5780634277ca4714610273578063592b7315146102935780635c975abb146102a85780636dfb1522146102cc578063715018a6146102ec57806372f702f31461030157600080fd5b806301e9772c146101455780631f4531f5146101dd578063355987cd1461020a5780633f4337e61461022c57806342296a141461025e57600080fd5b3661014057005b600080fd5b34801561015157600080fd5b5061019c6101603660046127cc565b6005602052600090815260409020805460018201546002830154600390930154919290916001600160801b03909116906001600160a01b031684565b6040516101d4949392919093845260208401929092526001600160801b031660408301526001600160a01b0316606082015260800190565b60405180910390f35b3480156101e957600080fd5b506101f2600a81565b6040516001600160401b0390911681526020016101d4565b34801561021657600080fd5b5061022a6102253660046127fc565b610675565b005b34801561023857600080fd5b5061024c6102473660046127cc565b61078d565b6040516101d496959493929190612895565b34801561026a57600080fd5b506101f2606481565b34801561027f57600080fd5b506101f261028e3660046128f4565b6108e9565b34801561029f57600080fd5b506101f2601481565b3480156102b457600080fd5b5060025460ff165b60405190151581526020016101d4565b3480156102d857600080fd5b5061022a6102e7366004612954565b610e71565b3480156102f857600080fd5b5061022a61104b565b34801561030d57600080fd5b506103357f000000000000000000000000000000000000000000000000000000000000000081565b6040516001600160a01b0390911681526020016101d4565b34801561035957600080fd5b506000546001600160a01b0316610335565b34801561037757600080fd5b5061022a6103863660046129a2565b61105f565b34801561039757600080fd5b5061022a6103a63660046129fa565b61194f565b3480156103b757600080fd5b5061022a6103c6366004612a24565b611a6a565b3480156103d757600080fd5b506101f26201518081565b3480156103ee57600080fd5b506104546103fd366004612a3f565b6006602090815260009283526040808420909152908252902080546001909101546001600160801b0380831692600160801b90819004821692918216919081046001600160401b031690600160c01b900460ff1685565b604080516001600160801b039687168152948616602086015292909416918301919091526001600160401b03166060820152901515608082015260a0016101d4565b3480156104a257600080fd5b506002546101f29061010090046001600160401b031681565b3480156104c757600080fd5b5061022a6104d63660046127fc565b611d60565b3480156104e757600080fd5b506105516104f63660046127cc565b6004602052600090815260409020805460018201546002909201546001600160801b0380831693600160801b9384900482169382821693918190048316928216919081046001600160401b031690600160c01b900460ff1687565b604080516001600160801b039889168152968816602088015294871694860194909452918516606085015290931660808301526001600160401b0390921660a082015290151560c082015260e0016101d4565b3480156105b057600080fd5b506106076105bf3660046127fc565b600760205260009081526040902080546001909101546001600160801b03808316926001600160401b03600160801b808304821694600160c01b909304821693831692041685565b604080516001600160801b0396871681526001600160401b03958616602082015293851690840152931660608201529116608082015260a0016101d4565b34801561065157600080fd5b506102bc6106603660046127fc565b60086020526000908152604090205460ff1681565b61067d611d9e565b6001600160a01b0381166106d85760405162461bcd60e51b815260206004820152601760248201527f496e76616c69642063726561746f72206164647265737300000000000000000060448201526064015b60405180910390fd5b6001600160a01b03811660009081526008602052604090205460ff16156107415760405162461bcd60e51b815260206004820152601860248201527f416c72656164792061206d61726b65742063726561746f72000000000000000060448201526064016106cf565b6001600160a01b038116600081815260086020526040808220805460ff19166001179055517f4e9176c537de49b87d28f4152be0a132c034b4d6b44efb002a884c2eba7615b09190a250565b6003602052600090815260409020805481906107a890612a6b565b80601f01602080910402602001604051908101604052809291908181526020018280546107d490612a6b565b80156108215780601f106107f657610100808354040283529160200191610821565b820191906000526020600020905b81548152906001019060200180831161080457829003601f168201915b50505050509080600101805461083690612a6b565b80601f016020809104026020016040519081016040528092919081815260200182805461086290612a6b565b80156108af5780601f10610884576101008083540402835291602001916108af565b820191906000526020600020905b81548152906001019060200180831161089257829003601f168201915b505050600290930154919250506001600160401b0381169060ff600160401b8204811691600160481b8104821691600160501b9091041686565b3360009081526008602052604081205460ff16806109205750336109156000546001600160a01b031690565b6001600160a01b0316145b61095d5760405162461bcd60e51b815260206004820152600e60248201526d139bdd08185d5d1a1bdc9a5e995960921b60448201526064016106cf565b610965611dcb565b61096d611def565b60006109798380612aa5565b9050116109b85760405162461bcd60e51b815260206004820152600d60248201526c496e76616c6964207469746c6560981b60448201526064016106cf565b60006109c76020840184612aa5565b905011610a0c5760405162461bcd60e51b815260206004820152601360248201527224b73b30b634b2103232b9b1b934b83a34b7b760691b60448201526064016106cf565b6001600160401b034216610a266060840160408501612a24565b6001600160401b031611610a6f5760405162461bcd60e51b815260206004820152601060248201526f496e76616c696420656e642074696d6560801b60448201526064016106cf565b6000610a82610100840160e08501612af2565b6001600160801b031611610ad05760405162461bcd60e51b815260206004820152601560248201527404d696e207374616b65206d757374206265203e203605c1b60448201526064016106cf565b6000610ae3610100840160e08501612af2565b610afe906001600160801b0316670de0b6b3a7640000612b23565b90506000610b1461012085016101008601612af2565b610b2f906001600160801b0316670de0b6b3a7640000612b23565b9050818111610b805760405162461bcd60e51b815260206004820152601d60248201527f4d6178207374616b65206d757374206265203e206d696e207374616b6500000060448201526064016106cf565b6000610b9461014086016101208701612a24565b6001600160401b03161015610beb5760405162461bcd60e51b815260206004820152601e60248201527f496e76616c69642072657075746174696f6e20726571756972656d656e74000060448201526064016106cf565b610bfb6080850160608601612b3a565b15610cd5576804e1003b28d927ffff19846080013512158015610c2b57506804e1003b28d9280000846080013513155b610c6a5760405162461bcd60e51b815260206004820152601060248201526f496e76616c6964206c6174697475646560801b60448201526064016106cf565b6809c2007651b24fffff198460a0013512158015610c9557506809c2007651b25000008460a0013513155b610cd55760405162461bcd60e51b8152602060048201526011602482015270496e76616c6964206c6f6e67697475646560781b60448201526064016106cf565b6002805461010090046001600160401b0316906001610cf383612b57565b82546001600160401b0391821661010093840a908102908302199091161790925560025404169050610d258186611e19565b610d2f8186611fed565b6040805160808082018352870135815260a08701356020808301918252600083850181815233606086019081526001600160401b03881683526005909352949020925183559051600183015591516002820180546fffffffffffffffffffffffffffffffff19166001600160801b039092169190911790559051600390910180546001600160a01b0319166001600160a01b03909216919091179055610dd433612125565b336001600160401b0382167f3f0603a850f3cfc484e5626d88418d5dd8332d58998ea324346a10c4d5350038610e0a8880612aa5565b610e1a60e08b0160c08c01612b82565b610e2a60608c0160408d01612a24565b610e3a60808d0160608e01612b3a565b8c608001358d60a00135604051610e579796959493929190612ba3565b60405180910390a392505050610e6c60018055565b919050565b610e79611d9e565b816000816001600160401b0316118015610ea757506002546001600160401b03610100909104811690821611155b610ec35760405162461bcd60e51b81526004016106cf90612c09565b610ecb611def565b6001600160401b038316600090815260036020908152604080832060049092529091206002820154600160401b900460ff1615610f3d5760405162461bcd60e51b815260206004820152601060248201526f105b1c9958591e481c995cdbdb1d995960821b60448201526064016106cf565b6000600283810154600160501b900460ff1690811115610f5f57610f5f61285d565b1480610f78575060028201546001600160401b03164210155b610fb95760405162461bcd60e51b815260206004820152601260248201527110d85b9b9bdd081c995cdbdb1d99481e595d60721b60448201526064016106cf565b6002808301805468ff00000000000000001916600160401b17905581018054851515600160c01b0260ff60c01b19909116179055610ff685612229565b846001600160401b03167fd2461bd52dd306ed4405ee588cf0c32be40e655caab776a2ba5b57e43e40baf185604051611033911515815260200190565b60405180910390a2505061104660018055565b505050565b611053611d9e565b61105d60006122b5565b565b836000816001600160401b031611801561108d57506002546001600160401b03610100909104811690821611155b6110a95760405162461bcd60e51b81526004016106cf90612c09565b6001600160401b0385166000908152600360205260409020600201548590600160401b900460ff16156111105760405162461bcd60e51b815260206004820152600f60248201526e13585c9ad95d081c995cdbdb1d9959608a1b60448201526064016106cf565b6001600160401b0380821660009081526003602052604090206002015416421061116b5760405162461bcd60e51b815260206004820152600c60248201526b13585c9ad95d08195b99195960a21b60448201526064016106cf565b611173611def565b61117b611dcb565b6001600160401b038616600090815260046020908152604080832060068352818420338552909252822090916111c26001600160801b038816670de0b6b3a7640000612b23565b60018401549091506000906111ef90600160801b90046001600160801b0316670de0b6b3a7640000612b23565b6002850154909150600090611215906001600160801b0316670de0b6b3a7640000612b23565b9050818310156112595760405162461bcd60e51b815260206004820152600f60248201526e42656c6f77206d696e207374616b6560881b60448201526064016106cf565b8083111561129b5760405162461bcd60e51b815260206004820152600f60248201526e41626f7665206d6178207374616b6560881b60448201526064016106cf565b600285015433600090815260076020526040902054600160801b9091046001600160401b03166001600160801b03909116101561131a5760405162461bcd60e51b815260206004820152601760248201527f496e73756666696369656e742072657075746174696f6e00000000000000000060448201526064016106cf565b60006113288c8c8c8c612305565b905088156115a7576040516323b872dd60e01b81523360048201523060248201526001600160801b03821660448201527f00000000000000000000000000000000000000000000000000000000000000006001600160a01b0316906323b872dd906064016020604051808303816000875af11580156113ab573d6000803e3d6000fd5b505050506040513d601f19601f820116820180604052508101906113cf9190612c34565b6113eb5760405162461bcd60e51b81526004016106cf90612c51565b8a156114815785548a90879060009061140e9084906001600160801b0316612c7a565b92506101000a8154816001600160801b0302191690836001600160801b03160217905550898560000160008282829054906101000a90046001600160801b03166114589190612c7a565b92506101000a8154816001600160801b0302191690836001600160801b03160217905550611514565b85548a9087906010906114a5908490600160801b90046001600160801b0316612c7a565b92506101000a8154816001600160801b0302191690836001600160801b03160217905550898560000160108282829054906101000a90046001600160801b03166114ef9190612c7a565b92506101000a8154816001600160801b0302191690836001600160801b031602179055505b6001850180548291906000906115349084906001600160801b0316612c7a565b92506101000a8154816001600160801b0302191690836001600160801b03160217905550808660010160008282829054906101000a90046001600160801b031661157e9190612c7a565b92506101000a8154816001600160801b0302191690836001600160801b031602179055506118ae565b60008b6115c5578554600160801b90046001600160801b03166115d1565b85546001600160801b03165b90508a6001600160801b0316816001600160801b0316101561162b5760405162461bcd60e51b8152602060048201526013602482015272496e73756666696369656e742073686172657360681b60448201526064016106cf565b60006116388e338e6124bd565b905060006116468285612c99565b90508d156116de5788548d908a9060009061166b9084906001600160801b0316612c99565b92506101000a8154816001600160801b0302191690836001600160801b031602179055508c8860000160008282829054906101000a90046001600160801b03166116b59190612c99565b92506101000a8154816001600160801b0302191690836001600160801b03160217905550611771565b88548d908a90601090611702908490600160801b90046001600160801b0316612c99565b92506101000a8154816001600160801b0302191690836001600160801b031602179055508c8860000160108282829054906101000a90046001600160801b031661174c9190612c99565b92506101000a8154816001600160801b0302191690836001600160801b031602179055505b6001880180548291906000906117919084906001600160801b0316612c99565b92506101000a8154816001600160801b0302191690836001600160801b03160217905550808960010160008282829054906101000a90046001600160801b03166117db9190612c99565b82546101009290920a6001600160801b0381810219909316918316021790915560405163a9059cbb60e01b815233600482015290831660248201527f00000000000000000000000000000000000000000000000000000000000000006001600160a01b0316915063a9059cbb906044016020604051808303816000875af115801561186a573d6000803e3d6000fd5b505050506040513d601f19601f8201168201806040525081019061188e9190612c34565b6118aa5760405162461bcd60e51b81526004016106cf90612c51565b5050505b6001850180546001600160401b03428116600160801b0267ffffffffffffffff60801b1990921691909117909155604080518d151581526001600160801b03808e1660208301528416918101919091528a1515606082015233918e16907fef3e9c094eae3cbb1399062ac1918f69646bb007107ec1b3e3b6d4a48d744b899060800160405180910390a350505050505061194760018055565b505050505050565b611957611d9e565b7f00000000000000000000000000000000000000000000000000000000000000006001600160a01b0316826001600160a01b0316036119d85760405162461bcd60e51b815260206004820152601d60248201527f43616e6e6f74207769746864726177207374616b696e6720746f6b656e00000060448201526064016106cf565b816001600160a01b031663a9059cbb6119f96000546001600160a01b031690565b6040516001600160e01b031960e084901b1681526001600160a01b039091166004820152602481018490526044016020604051808303816000875af1158015611a46573d6000803e3d6000fd5b505050506040513d601f19601f820116820180604052508101906110469190612c34565b806000816001600160401b0316118015611a9857506002546001600160401b03610100909104811690821611155b611ab45760405162461bcd60e51b81526004016106cf90612c09565b611abc611def565b6001600160401b0382166000908152600360209081526040808320600483528184206006845282852033865290935292206002830154600160401b900460ff16611b3e5760405162461bcd60e51b815260206004820152601360248201527213585c9ad95d081b9bdd081c995cdbdb1d9959606a1b60448201526064016106cf565b6001810154600160c01b900460ff1615611b8c5760405162461bcd60e51b815260206004820152600f60248201526e105b1c9958591e4818db185a5b5959608a1b60448201526064016106cf565b60018201546001600160801b0316611bdf5760405162461bcd60e51b8152602060048201526016602482015275139bc81cdd185ad9481a5b881d1a19481b585c9ad95d60521b60448201526064016106cf565b6000611beb868361257b565b90506000816001600160801b031611611c3c5760405162461bcd60e51b81526020600482015260136024820152724e6f2072657761726420617661696c61626c6560681b60448201526064016106cf565b60018201805460ff60c01b1916600160c01b17905560405163a9059cbb60e01b81523360048201526001600160801b03821660248201526001600160a01b037f0000000000000000000000000000000000000000000000000000000000000000169063a9059cbb906044016020604051808303816000875af1158015611cc6573d6000803e3d6000fd5b505050506040513d601f19601f82011682018060405250810190611cea9190612c34565b611d065760405162461bcd60e51b81526004016106cf90612c51565b6040516001600160801b038216815233906001600160401b038816907f5bd23f8531edf92b5ef188e02f237942bca73e65c3a629fe168dda5b87db070f9060200160405180910390a350505050611d5c60018055565b5050565b611d68611d9e565b6001600160a01b038116611d9257604051631e4fbdf760e01b8152600060048201526024016106cf565b611d9b816122b5565b50565b6000546001600160a01b0316331461105d5760405163118cdaa760e01b81523360048201526024016106cf565b60025460ff161561105d5760405163d93c066560e01b815260040160405180910390fd5b600260015403611e1257604051633ee5aeb560e01b815260040160405180910390fd5b6002600155565b6040805160c0810190915280611e2f8380612aa5565b8080601f016020809104026020016040519081016040528093929190818152602001838380828437600092019190915250505090825250602090810190611e7890840184612aa5565b8080601f016020809104026020016040519081016040528093929190818152602001838380828437600092019190915250505090825250602001611ec26060840160408501612a24565b6001600160401b0316815260006020820152604001611ee76080840160608501612b3a565b15158152602001611efe60e0840160c08501612b82565b6002811115611f0f57611f0f61285d565b90526001600160401b038316600090815260036020526040902081518190611f379082612d15565b5060208201516001820190611f4c9082612d15565b50604082015160028083018054606086015160808701511515600160481b0269ff00000000000000000019911515600160401b0268ffffffffffffffffff199093166001600160401b0390961695909517919091179081168417825560a086015193919260ff60501b199092166affff000000000000000000199091161790600160501b908490811115611fe257611fe261285d565b021790555050505050565b6040518060e0016040528060006001600160801b0316815260200160006001600160801b0316815260200160006001600160801b031681526020018260e001602081019061203b9190612af2565b6001600160801b0316815260200161205b61012084016101008501612af2565b6001600160801b0316815260200161207b61014084016101208501612a24565b6001600160401b039081168252600060209283018190529481168552600482526040948590208351928401516001600160801b03908116600160801b9081029482169490941782559584015160608501518716840290871617600182015560808401516002909101805460a086015160c0909601511515600160c01b0260ff60c01b19969094169094026001600160c01b0319909416919096161791909117919091161790915550565b6001600160a01b03811660009081526007602052604090208054600160801b90046001600160401b031681601061215b83612b57565b82546001600160401b039182166101009390930a9283029190920219909116179055508054600a90829060009061219c9084906001600160801b0316612c7a565b82546101009290920a6001600160801b0381810219909316918316021790915560018301805467ffffffffffffffff60801b1916600160801b426001600160401b0316021790558254604051911681526001600160a01b03841691507f905627605483a4ce20c5bf798d3c5c5859e64404876cf1c8ee69dd0d6be870e89060200160405180910390a25050565b6001600160401b03811660009081526004602052604081208054909190612262906001600160801b03600160801b820481169116612dd3565b90508060000361227157505050565b6000816122876064670de0b6b3a7640000612b23565b6122919190612dfc565b6002840154909150600160c01b900460ff166122ae85828461264d565b5050505050565b600080546001600160a01b038381166001600160a01b0319831681178455604051919092169283917f8be0079c531659141344cd1fd0a4f28419497f9722a3daafe3b4186f6b6457e09190a35050565b6001600160401b0384166000908152600460205260408120818561233a578154600160801b90046001600160801b0316612346565b81546001600160801b03165b6001600160801b031690506000866123685782546001600160801b031661237b565b8254600160801b90046001600160801b03165b6001600160801b031690506000866001600160801b0316670de0b6b3a76400006123a59190612b23565b905060006123b38385612dd3565b6123be906001612dd3565b6123d085670de0b6b3a7640000612b23565b6123da9190612dfc565b6001808701549192506000916123fb916001600160801b0390911690612c7a565b6001600160801b031661241684670de0b6b3a7640000612b23565b6124209190612dfc565b9050871561247a57670de0b6b3a764000060648b61243f576002612442565b60015b61244f9060ff1684612b23565b6124599190612dfc565b6124639084612dd3565b61246d9190612dfc565b96505050505050506124b5565b670de0b6b3a764000060648b612491576001612494565b60025b6124a19060ff1684612b23565b6124ab9190612dfc565b6124639084612e10565b949350505050565b6001600160401b038084166000908152600660209081526040808320338452909152812060018101549192909183916124fe91600160801b90041642612e23565b9050620151806001600160401b0382161061251e57600092505050612574565b600062015180600a6125308483612e23565b61253a9190612e42565b6125449190612e6b565b6001600160401b031690506064612564826001600160801b038816612b23565b61256e9190612dfc565b93505050505b9392505050565b6001600160401b03821660009081526004602052604081206002810154600160c01b900460ff1682816125bf578454600160801b90046001600160801b03166125cb565b84546001600160801b03165b9050806001600160801b03166000036125ea5760009350505050612647565b600082612608578354600160801b90046001600160801b0316612614565b83546001600160801b03165b60018501549091506001600160801b0380831691612636918581169116612b23565b6126409190612dfc565b9450505050505b92915050565b6001600160401b03831660009081526004602052604081209083612682578154600160801b90046001600160801b031661268e565b81546001600160801b03165b90506001600160801b038116156122ae5733600090815260076020526040812090670de0b6b3a76400006126ce6001600160801b03808816908616612b23565b6126d89190612dfc565b8254909150819083906000906126f89084906001600160801b0316612c7a565b82546001600160801b039182166101009390930a92830291909202199091161790555081546001600160401b03600160c01b9091041682601861273a83612b57565b82546101009290920a6001600160401b0381810219909316918316021790915560018401805467ffffffffffffffff60801b1916600160801b42909316929092029190911790555081546040516001600160801b03909116815233907f905627605483a4ce20c5bf798d3c5c5859e64404876cf1c8ee69dd0d6be870e89060200160405180910390a250505050505050565b6000602082840312156127de57600080fd5b5035919050565b80356001600160a01b0381168114610e6c57600080fd5b60006020828403121561280e57600080fd5b612574826127e5565b6000815180845260005b8181101561283d57602081850181015186830182015201612821565b506000602082860101526020601f19601f83011685010191505092915050565b634e487b7160e01b600052602160045260246000fd5b6003811061289157634e487b7160e01b600052602160045260246000fd5b9052565b60c0815260006128a860c0830189612817565b82810360208401526128ba8189612817565b9150506001600160401b0386166040830152841515606083015283151560808301526128e960a0830184612873565b979650505050505050565b60006020828403121561290657600080fd5b81356001600160401b0381111561291c57600080fd5b8201610140818503121561257457600080fd5b80356001600160401b0381168114610e6c57600080fd5b8015158114611d9b57600080fd5b6000806040838503121561296757600080fd5b6129708361292f565b9150602083013561298081612946565b809150509250929050565b80356001600160801b0381168114610e6c57600080fd5b600080600080608085870312156129b857600080fd5b6129c18561292f565b935060208501356129d181612946565b92506129df6040860161298b565b915060608501356129ef81612946565b939692955090935050565b60008060408385031215612a0d57600080fd5b612a16836127e5565b946020939093013593505050565b600060208284031215612a3657600080fd5b6125748261292f565b60008060408385031215612a5257600080fd5b82359150612a62602084016127e5565b90509250929050565b600181811c90821680612a7f57607f821691505b602082108103612a9f57634e487b7160e01b600052602260045260246000fd5b50919050565b6000808335601e19843603018112612abc57600080fd5b8301803591506001600160401b03821115612ad657600080fd5b602001915036819003821315612aeb57600080fd5b9250929050565b600060208284031215612b0457600080fd5b6125748261298b565b634e487b7160e01b600052601160045260246000fd5b808202811582820484141761264757612647612b0d565b600060208284031215612b4c57600080fd5b813561257481612946565b60006001600160401b0382166001600160401b038103612b7957612b79612b0d565b60010192915050565b600060208284031215612b9457600080fd5b81356003811061257457600080fd5b60c081528660c0820152868860e0830137600060e08883010152600060e0601f19601f8a01168301019050612bdb6020830188612873565b6001600160401b039590951660408201529215156060840152608083019190915260a0909101529392505050565b602080825260119082015270125b9d985b1a59081b585c9ad95d081251607a1b604082015260600190565b600060208284031215612c4657600080fd5b815161257481612946565b6020808252600f908201526e151c985b9cd9995c8819985a5b1959608a1b604082015260600190565b6001600160801b03818116838216019081111561264757612647612b0d565b6001600160801b03828116828216039081111561264757612647612b0d565b634e487b7160e01b600052604160045260246000fd5b601f82111561104657806000526020600020601f840160051c81016020851015612cf55750805b601f840160051c820191505b818110156122ae5760008155600101612d01565b81516001600160401b03811115612d2e57612d2e612cb8565b612d4281612d3c8454612a6b565b84612cce565b6020601f821160018114612d765760008315612d5e5750848201515b600019600385901b1c1916600184901b1784556122ae565b600084815260208120601f198516915b82811015612da65787850151825560209485019460019092019101612d86565b5084821015612dc45786840151600019600387901b60f8161c191681555b50505050600190811b01905550565b8082018082111561264757612647612b0d565b634e487b7160e01b600052601260045260246000fd5b600082612e0b57612e0b612de6565b500490565b8181038181111561264757612647612b0d565b6001600160401b03828116828216039081111561264757612647612b0d565b6001600160401b038181168382160290811690818114612e6457612e64612b0d565b5092915050565b60006001600160401b03831680612e8457612e84612de6565b806001600160401b038416049150509291505056fea264697066735822122017599da6c8bfdc1e2120d366f29e38a029973a065fd9b2e0174e3411969c656964736f6c634300081b0033",
  "devdoc": {
    "details": "Advanced prediction market for public goods and environmental projects",
    "errors": {
      "EnforcedPause()": [
        {
          "details": "The operation failed because the contract is paused."
        }
      ],
      "ExpectedPause()": [
        {
          "details": "The operation failed because the contract is not paused."
        }
      ],
      "OwnableInvalidOwner(address)": [
        {
          "details": "The owner is not a valid owner account. (eg. `address(0)`)"
        }
      ],
      "OwnableUnauthorizedAccount(address)": [
        {
          "details": "The caller account is not authorized to perform an operation."
        }
      ],
      "ReentrancyGuardReentrantCall()": [
        {
          "details": "Unauthorized reentrant call."
        }
      ]
    },
    "events": {
      "Paused(address)": {
        "details": "Emitted when the pause is triggered by `account`."
      },
      "Unpaused(address)": {
        "details": "Emitted when the pause is lifted by `account`."
      }
    },
    "kind": "dev",
    "methods": {
      "owner()": {
        "details": "Returns the address of the current owner."
      },
      "paused()": {
        "details": "Returns true if the contract is paused, and false otherwise."
      },
      "renounceOwnership()": {
        "details": "Leaves the contract without owner. It will not be possible to call `onlyOwner` functions. Can only be called by the current owner. NOTE: Renouncing ownership will leave the contract without an owner, thereby disabling any functionality that is only available to the owner."
      },
      "transferOwnership(address)": {
        "details": "Transfers ownership of the contract to a new account (`newOwner`). Can only be called by the current owner."
      }
    },
    "title": "perennialprediction",
    "version": 1
  },
  "userdoc": {
    "kind": "user",
    "methods": {},
    "version": 1
  },
  "storageLayout": {
    "storage": [
      {
        "astId": 8,
        "contract": "contracts/perennialprediction.sol:perennialprediction",
        "label": "_owner",
        "offset": 0,
        "slot": "0",
        "type": "t_address"
      },
      {
        "astId": 383,
        "contract": "contracts/perennialprediction.sol:perennialprediction",
        "label": "_status",
        "offset": 0,
        "slot": "1",
        "type": "t_uint256"
      },
      {
        "astId": 264,
        "contract": "contracts/perennialprediction.sol:perennialprediction",
        "label": "_paused",
        "offset": 0,
        "slot": "2",
        "type": "t_bool"
      },
      {
        "astId": 887,
        "contract": "contracts/perennialprediction.sol:perennialprediction",
        "label": "marketCount",
        "offset": 1,
        "slot": "2",
        "type": "t_uint64"
      },
      {
        "astId": 892,
        "contract": "contracts/perennialprediction.sol:perennialprediction",
        "label": "marketCores",
        "offset": 0,
        "slot": "3",
        "type": "t_mapping(t_uint256,t_struct(MarketCore)820_storage)"
      },
      {
        "astId": 897,
        "contract": "contracts/perennialprediction.sol:perennialprediction",
        "label": "marketData",
        "offset": 0,
        "slot": "4",
        "type": "t_mapping(t_uint256,t_struct(MarketData)835_storage)"
      },
      {
        "astId": 902,
        "contract": "contracts/perennialprediction.sol:perennialprediction",
        "label": "marketLocations",
        "offset": 0,
        "slot": "5",
        "type": "t_mapping(t_uint256,t_struct(MarketLocation)844_storage)"
      },
      {
        "astId": 909,
        "contract": "contracts/perennialprediction.sol:perennialprediction",
        "label": "positions",
        "offset": 0,
        "slot": "6",
        "type": "t_mapping(t_uint256,t_mapping(t_address,t_struct(UserPosition)855_storage))"
      },
      {
        "astId": 914,
        "contract": "contracts/perennialprediction.sol:perennialprediction",
        "label": "userReputations",
        "offset": 0,
        "slot": "7",
        "type": "t_mapping(t_address,t_struct(UserReputation)866_storage)"
      },
      {
        "astId": 918,
        "contract": "contracts/perennialprediction.sol:perennialprediction",
        "label": "isMarketCreator",
        "offset": 0,
        "slot": "8",
        "type": "t_mapping(t_address,t_bool)"
      }
    ],
    "types": {
      "t_address": {
        "encoding": "inplace",
        "label": "address",
        "numberOfBytes": "20"
      },
      "t_bool": {
        "encoding": "inplace",
        "label": "bool",
        "numberOfBytes": "1"
      },
      "t_enum(MarketType)870": {
        "encoding": "inplace",
        "label": "enum perennialprediction.MarketType",
        "numberOfBytes": "1"
      },
      "t_int256": {
        "encoding": "inplace",
        "label": "int256",
        "numberOfBytes": "32"
      },
      "t_mapping(t_address,t_bool)": {
        "encoding": "mapping",
        "key": "t_address",
        "label": "mapping(address => bool)",
        "numberOfBytes": "32",
        "value": "t_bool"
      },
      "t_mapping(t_address,t_struct(UserPosition)855_storage)": {
        "encoding": "mapping",
        "key": "t_address",
        "label": "mapping(address => struct perennialprediction.UserPosition)",
        "numberOfBytes": "32",
        "value": "t_struct(UserPosition)855_storage"
      },
      "t_mapping(t_address,t_struct(UserReputation)866_storage)": {
        "encoding": "mapping",
        "key": "t_address",
        "label": "mapping(address => struct perennialprediction.UserReputation)",
        "numberOfBytes": "32",
        "value": "t_struct(UserReputation)866_storage"
      },
      "t_mapping(t_uint256,t_mapping(t_address,t_struct(UserPosition)855_storage))": {
        "encoding": "mapping",
        "key": "t_uint256",
        "label": "mapping(uint256 => mapping(address => struct perennialprediction.UserPosition))",
        "numberOfBytes": "32",
        "value": "t_mapping(t_address,t_struct(UserPosition)855_storage)"
      },
      "t_mapping(t_uint256,t_struct(MarketCore)820_storage)": {
        "encoding": "mapping",
        "key": "t_uint256",
        "label": "mapping(uint256 => struct perennialprediction.MarketCore)",
        "numberOfBytes": "32",
        "value": "t_struct(MarketCore)820_storage"
      },
      "t_mapping(t_uint256,t_struct(MarketData)835_storage)": {
        "encoding": "mapping",
        "key": "t_uint256",
        "label": "mapping(uint256 => struct perennialprediction.MarketData)",
        "numberOfBytes": "32",
        "value": "t_struct(MarketData)835_storage"
      },
      "t_mapping(t_uint256,t_struct(MarketLocation)844_storage)": {
        "encoding": "mapping",
        "key": "t_uint256",
        "label": "mapping(uint256 => struct perennialprediction.MarketLocation)",
        "numberOfBytes": "32",
        "value": "t_struct(MarketLocation)844_storage"
      },
      "t_string_storage": {
        "encoding": "bytes",
        "label": "string",
        "numberOfBytes": "32"
      },
      "t_struct(MarketCore)820_storage": {
        "encoding": "inplace",
        "label": "struct perennialprediction.MarketCore",
        "members": [
          {
            "astId": 808,
            "contract": "contracts/perennialprediction.sol:perennialprediction",
            "label": "title",
            "offset": 0,
            "slot": "0",
            "type": "t_string_storage"
          },
          {
            "astId": 810,
            "contract": "contracts/perennialprediction.sol:perennialprediction",
            "label": "description",
            "offset": 0,
            "slot": "1",
            "type": "t_string_storage"
          },
          {
            "astId": 812,
            "contract": "contracts/perennialprediction.sol:perennialprediction",
            "label": "endTime",
            "offset": 0,
            "slot": "2",
            "type": "t_uint64"
          },
          {
            "astId": 814,
            "contract": "contracts/perennialprediction.sol:perennialprediction",
            "label": "isResolved",
            "offset": 8,
            "slot": "2",
            "type": "t_bool"
          },
          {
            "astId": 816,
            "contract": "contracts/perennialprediction.sol:perennialprediction",
            "label": "isHyperLocal",
            "offset": 9,
            "slot": "2",
            "type": "t_bool"
          },
          {
            "astId": 819,
            "contract": "contracts/perennialprediction.sol:perennialprediction",
            "label": "marketType",
            "offset": 10,
            "slot": "2",
            "type": "t_enum(MarketType)870"
          }
        ],
        "numberOfBytes": "96"
      },
      "t_struct(MarketData)835_storage": {
        "encoding": "inplace",
        "label": "struct perennialprediction.MarketData",
        "members": [
          {
            "astId": 822,
            "contract": "contracts/perennialprediction.sol:perennialprediction",
            "label": "yesShares",
            "offset": 0,
            "slot": "0",
            "type": "t_uint128"
          },
          {
            "astId": 824,
            "contract": "contracts/perennialprediction.sol:perennialprediction",
            "label": "noShares",
            "offset": 16,
            "slot": "0",
            "type": "t_uint128"
          },
          {
            "astId": 826,
            "contract": "contracts/perennialprediction.sol:perennialprediction",
            "label": "totalStake",
            "offset": 0,
            "slot": "1",
            "type": "t_uint128"
          },
          {
            "astId": 828,
            "contract": "contracts/perennialprediction.sol:perennialprediction",
            "label": "minStake",
            "offset": 16,
            "slot": "1",
            "type": "t_uint128"
          },
          {
            "astId": 830,
            "contract": "contracts/perennialprediction.sol:perennialprediction",
            "label": "maxStake",
            "offset": 0,
            "slot": "2",
            "type": "t_uint128"
          },
          {
            "astId": 832,
            "contract": "contracts/perennialprediction.sol:perennialprediction",
            "label": "reputationRequired",
            "offset": 16,
            "slot": "2",
            "type": "t_uint64"
          },
          {
            "astId": 834,
            "contract": "contracts/perennialprediction.sol:perennialprediction",
            "label": "outcome",
            "offset": 24,
            "slot": "2",
            "type": "t_bool"
          }
        ],
        "numberOfBytes": "96"
      },
      "t_struct(MarketLocation)844_storage": {
        "encoding": "inplace",
        "label": "struct perennialprediction.MarketLocation",
        "members": [
          {
            "astId": 837,
            "contract": "contracts/perennialprediction.sol:perennialprediction",
            "label": "latitude",
            "offset": 0,
            "slot": "0",
            "type": "t_int256"
          },
          {
            "astId": 839,
            "contract": "contracts/perennialprediction.sol:perennialprediction",
            "label": "longitude",
            "offset": 0,
            "slot": "1",
            "type": "t_int256"
          },
          {
            "astId": 841,
            "contract": "contracts/perennialprediction.sol:perennialprediction",
            "label": "poolId",
            "offset": 0,
            "slot": "2",
            "type": "t_uint128"
          },
          {
            "astId": 843,
            "contract": "contracts/perennialprediction.sol:perennialprediction",
            "label": "creator",
            "offset": 0,
            "slot": "3",
            "type": "t_address"
          }
        ],
        "numberOfBytes": "128"
      },
      "t_struct(UserPosition)855_storage": {
        "encoding": "inplace",
        "label": "struct perennialprediction.UserPosition",
        "members": [
          {
            "astId": 846,
            "contract": "contracts/perennialprediction.sol:perennialprediction",
            "label": "yesShares",
            "offset": 0,
            "slot": "0",
            "type": "t_uint128"
          },
          {
            "astId": 848,
            "contract": "contracts/perennialprediction.sol:perennialprediction",
            "label": "noShares",
            "offset": 16,
            "slot": "0",
            "type": "t_uint128"
          },
          {
            "astId": 850,
            "contract": "contracts/perennialprediction.sol:perennialprediction",
            "label": "stakedAmount",
            "offset": 0,
            "slot": "1",
            "type": "t_uint128"
          },
          {
            "astId": 852,
            "contract": "contracts/perennialprediction.sol:perennialprediction",
            "label": "lastInteractionTime",
            "offset": 16,
            "slot": "1",
            "type": "t_uint64"
          },
          {
            "astId": 854,
            "contract": "contracts/perennialprediction.sol:perennialprediction",
            "label": "hasClaimedRewards",
            "offset": 24,
            "slot": "1",
            "type": "t_bool"
          }
        ],
        "numberOfBytes": "64"
      },
      "t_struct(UserReputation)866_storage": {
        "encoding": "inplace",
        "label": "struct perennialprediction.UserReputation",
        "members": [
          {
            "astId": 857,
            "contract": "contracts/perennialprediction.sol:perennialprediction",
            "label": "score",
            "offset": 0,
            "slot": "0",
            "type": "t_uint128"
          },
          {
            "astId": 859,
            "contract": "contracts/perennialprediction.sol:perennialprediction",
            "label": "marketsCreated",
            "offset": 16,
            "slot": "0",
            "type": "t_uint64"
          },
          {
            "astId": 861,
            "contract": "contracts/perennialprediction.sol:perennialprediction",
            "label": "successfulPredictions",
            "offset": 24,
            "slot": "0",
            "type": "t_uint64"
          },
          {
            "astId": 863,
            "contract": "contracts/perennialprediction.sol:perennialprediction",
            "label": "totalStaked",
            "offset": 0,
            "slot": "1",
            "type": "t_uint128"
          },
          {
            "astId": 865,
            "contract": "contracts/perennialprediction.sol:perennialprediction",
            "label": "lastUpdateTime",
            "offset": 16,
            "slot": "1",
            "type": "t_uint64"
          }
        ],
        "numberOfBytes": "64"
      },
      "t_uint128": {
        "encoding": "inplace",
        "label": "uint128",
        "numberOfBytes": "16"
      },
      "t_uint256": {
        "encoding": "inplace",
        "label": "uint256",
        "numberOfBytes": "32"
      },
      "t_uint64": {
        "encoding": "inplace",
        "label": "uint64",
        "numberOfBytes": "8"
      }
    }
  }
}