{
  "address": "0xffDB8b3c65C5bB7e1a638E257D7C01A7561afb46",
  "abi": [
    {
      "inputs": [
        {
          "internalType": "address",
          "name": "initialOwner",
          "type": "address"
        },
        {
          "internalType": "address",
          "name": "_easAddress",
          "type": "address"
        },
        {
          "internalType": "bytes32",
          "name": "_schemaUID",
          "type": "bytes32"
        }
      ],
      "stateMutability": "nonpayable",
      "type": "constructor"
    },
    {
      "inputs": [],
      "name": "EnforcedPause",
      "type": "error"
    },
    {
      "inputs": [],
      "name": "ExpectedPause",
      "type": "error"
    },
    {
      "inputs": [
        {
          "internalType": "address",
          "name": "owner",
          "type": "address"
        }
      ],
      "name": "OwnableInvalidOwner",
      "type": "error"
    },
    {
      "inputs": [
        {
          "internalType": "address",
          "name": "account",
          "type": "address"
        }
      ],
      "name": "OwnableUnauthorizedAccount",
      "type": "error"
    },
    {
      "inputs": [],
      "name": "ReentrancyGuardReentrantCall",
      "type": "error"
    },
    {
      "anonymous": false,
      "inputs": [
        {
          "indexed": true,
          "internalType": "uint256",
          "name": "marketId",
          "type": "uint256"
        },
        {
          "indexed": true,
          "internalType": "address",
          "name": "creator",
          "type": "address"
        },
        {
          "indexed": false,
          "internalType": "string",
          "name": "title",
          "type": "string"
        },
        {
          "indexed": false,
          "internalType": "uint256",
          "name": "endTime",
          "type": "uint256"
        }
      ],
      "name": "MarketCreated",
      "type": "event"
    },
    {
      "anonymous": false,
      "inputs": [
        {
          "indexed": true,
          "internalType": "uint256",
          "name": "marketId",
          "type": "uint256"
        },
        {
          "indexed": false,
          "internalType": "bool",
          "name": "outcome",
          "type": "bool"
        }
      ],
      "name": "MarketResolved",
      "type": "event"
    },
    {
      "anonymous": false,
      "inputs": [
        {
          "indexed": true,
          "internalType": "address",
          "name": "previousOwner",
          "type": "address"
        },
        {
          "indexed": true,
          "internalType": "address",
          "name": "newOwner",
          "type": "address"
        }
      ],
      "name": "OwnershipTransferred",
      "type": "event"
    },
    {
      "anonymous": false,
      "inputs": [
        {
          "indexed": false,
          "internalType": "address",
          "name": "account",
          "type": "address"
        }
      ],
      "name": "Paused",
      "type": "event"
    },
    {
      "anonymous": false,
      "inputs": [
        {
          "indexed": true,
          "internalType": "uint256",
          "name": "marketId",
          "type": "uint256"
        },
        {
          "indexed": true,
          "internalType": "address",
          "name": "user",
          "type": "address"
        },
        {
          "indexed": false,
          "internalType": "uint256",
          "name": "amount",
          "type": "uint256"
        }
      ],
      "name": "RewardsClaimed",
      "type": "event"
    },
    {
      "anonymous": false,
      "inputs": [
        {
          "indexed": true,
          "internalType": "uint256",
          "name": "marketId",
          "type": "uint256"
        },
        {
          "indexed": true,
          "internalType": "address",
          "name": "trader",
          "type": "address"
        },
        {
          "indexed": false,
          "internalType": "bool",
          "name": "isYes",
          "type": "bool"
        },
        {
          "indexed": false,
          "internalType": "uint256",
          "name": "shares",
          "type": "uint256"
        },
        {
          "indexed": false,
          "internalType": "uint256",
          "name": "stakeAmount",
          "type": "uint256"
        },
        {
          "indexed": false,
          "internalType": "bool",
          "name": "isBuy",
          "type": "bool"
        }
      ],
      "name": "SharesTraded",
      "type": "event"
    },
    {
      "anonymous": false,
      "inputs": [
        {
          "indexed": false,
          "internalType": "address",
          "name": "account",
          "type": "address"
        }
      ],
      "name": "Unpaused",
      "type": "event"
    },
    {
      "inputs": [
        {
          "internalType": "uint256",
          "name": "_marketId",
          "type": "uint256"
        }
      ],
      "name": "claimRewards",
      "outputs": [],
      "stateMutability": "nonpayable",
      "type": "function"
    },
    {
      "inputs": [
        {
          "internalType": "string",
          "name": "_title",
          "type": "string"
        },
        {
          "internalType": "string",
          "name": "_description",
          "type": "string"
        },
        {
          "internalType": "uint64",
          "name": "_endTime",
          "type": "uint64"
        },
        {
          "internalType": "bool",
          "name": "_isHyperLocal",
          "type": "bool"
        },
        {
          "internalType": "int256",
          "name": "_latitude",
          "type": "int256"
        },
        {
          "internalType": "int256",
          "name": "_longitude",
          "type": "int256"
        },
        {
          "internalType": "uint128",
          "name": "_minStake",
          "type": "uint128"
        },
        {
          "internalType": "uint128",
          "name": "_maxStake",
          "type": "uint128"
        }
      ],
      "name": "createMarket",
      "outputs": [
        {
          "internalType": "uint256",
          "name": "",
          "type": "uint256"
        }
      ],
      "stateMutability": "nonpayable",
      "type": "function"
    },
    {
      "inputs": [
        {
          "internalType": "string",
          "name": "_title",
          "type": "string"
        },
        {
          "internalType": "string",
          "name": "_description",
          "type": "string"
        },
        {
          "internalType": "uint64",
          "name": "_endTime",
          "type": "uint64"
        },
        {
          "internalType": "bool",
          "name": "_isHyperLocal",
          "type": "bool"
        },
        {
          "internalType": "int256",
          "name": "_latitude",
          "type": "int256"
        },
        {
          "internalType": "int256",
          "name": "_longitude",
          "type": "int256"
        },
        {
          "internalType": "uint128",
          "name": "_minStake",
          "type": "uint128"
        },
        {
          "internalType": "uint128",
          "name": "_maxStake",
          "type": "uint128"
        }
      ],
      "name": "createMarketWithAttestation",
      "outputs": [
        {
          "internalType": "uint256",
          "name": "marketId",
          "type": "uint256"
        },
        {
          "internalType": "bytes32",
          "name": "attestationUID",
          "type": "bytes32"
        }
      ],
      "stateMutability": "nonpayable",
      "type": "function"
    },
    {
      "inputs": [
        {
          "internalType": "uint256",
          "name": "_marketId",
          "type": "uint256"
        }
      ],
      "name": "getMarket",
      "outputs": [
        {
          "components": [
            {
              "internalType": "string",
              "name": "title",
              "type": "string"
            },
            {
              "internalType": "string",
              "name": "description",
              "type": "string"
            },
            {
              "internalType": "uint64",
              "name": "endTime",
              "type": "uint64"
            },
            {
              "internalType": "bool",
              "name": "isResolved",
              "type": "bool"
            },
            {
              "internalType": "bool",
              "name": "isHyperLocal",
              "type": "bool"
            },
            {
              "internalType": "string",
              "name": "marketType",
              "type": "string"
            }
          ],
          "internalType": "struct perennialprediction.MarketCore",
          "name": "core",
          "type": "tuple"
        },
        {
          "components": [
            {
              "internalType": "uint128",
              "name": "yesShares",
              "type": "uint128"
            },
            {
              "internalType": "uint128",
              "name": "noShares",
              "type": "uint128"
            },
            {
              "internalType": "uint128",
              "name": "totalStake",
              "type": "uint128"
            },
            {
              "internalType": "uint128",
              "name": "minStake",
              "type": "uint128"
            },
            {
              "internalType": "uint128",
              "name": "maxStake",
              "type": "uint128"
            },
            {
              "internalType": "uint64",
              "name": "reputationRequired",
              "type": "uint64"
            },
            {
              "internalType": "bool",
              "name": "outcome",
              "type": "bool"
            }
          ],
          "internalType": "struct perennialprediction.MarketData",
          "name": "data",
          "type": "tuple"
        },
        {
          "components": [
            {
              "internalType": "int256",
              "name": "latitude",
              "type": "int256"
            },
            {
              "internalType": "int256",
              "name": "longitude",
              "type": "int256"
            },
            {
              "internalType": "uint128",
              "name": "poolId",
              "type": "uint128"
            },
            {
              "internalType": "address",
              "name": "creator",
              "type": "address"
            }
          ],
          "internalType": "struct perennialprediction.MarketLocation",
          "name": "location",
          "type": "tuple"
        }
      ],
      "stateMutability": "view",
      "type": "function"
    },
    {
      "inputs": [
        {
          "internalType": "uint256",
          "name": "_marketId",
          "type": "uint256"
        },
        {
          "internalType": "address",
          "name": "_user",
          "type": "address"
        }
      ],
      "name": "getUserPosition",
      "outputs": [
        {
          "components": [
            {
              "internalType": "uint128",
              "name": "yesShares",
              "type": "uint128"
            },
            {
              "internalType": "uint128",
              "name": "noShares",
              "type": "uint128"
            },
            {
              "internalType": "uint128",
              "name": "stakedAmount",
              "type": "uint128"
            },
            {
              "internalType": "uint64",
              "name": "lastInteractionTime",
              "type": "uint64"
            },
            {
              "internalType": "bool",
              "name": "hasClaimedRewards",
              "type": "bool"
            }
          ],
          "internalType": "struct perennialprediction.UserPosition",
          "name": "",
          "type": "tuple"
        }
      ],
      "stateMutability": "view",
      "type": "function"
    },
    {
      "inputs": [
        {
          "internalType": "uint256",
          "name": "",
          "type": "uint256"
        }
      ],
      "name": "marketCores",
      "outputs": [
        {
          "internalType": "string",
          "name": "title",
          "type": "string"
        },
        {
          "internalType": "string",
          "name": "description",
          "type": "string"
        },
        {
          "internalType": "uint64",
          "name": "endTime",
          "type": "uint64"
        },
        {
          "internalType": "bool",
          "name": "isResolved",
          "type": "bool"
        },
        {
          "internalType": "bool",
          "name": "isHyperLocal",
          "type": "bool"
        },
        {
          "internalType": "string",
          "name": "marketType",
          "type": "string"
        }
      ],
      "stateMutability": "view",
      "type": "function"
    },
    {
      "inputs": [],
      "name": "marketCount",
      "outputs": [
        {
          "internalType": "uint256",
          "name": "",
          "type": "uint256"
        }
      ],
      "stateMutability": "view",
      "type": "function"
    },
    {
      "inputs": [
        {
          "internalType": "uint256",
          "name": "",
          "type": "uint256"
        }
      ],
      "name": "marketData",
      "outputs": [
        {
          "internalType": "uint128",
          "name": "yesShares",
          "type": "uint128"
        },
        {
          "internalType": "uint128",
          "name": "noShares",
          "type": "uint128"
        },
        {
          "internalType": "uint128",
          "name": "totalStake",
          "type": "uint128"
        },
        {
          "internalType": "uint128",
          "name": "minStake",
          "type": "uint128"
        },
        {
          "internalType": "uint128",
          "name": "maxStake",
          "type": "uint128"
        },
        {
          "internalType": "uint64",
          "name": "reputationRequired",
          "type": "uint64"
        },
        {
          "internalType": "bool",
          "name": "outcome",
          "type": "bool"
        }
      ],
      "stateMutability": "view",
      "type": "function"
    },
    {
      "inputs": [
        {
          "internalType": "uint256",
          "name": "",
          "type": "uint256"
        }
      ],
      "name": "marketLocations",
      "outputs": [
        {
          "internalType": "int256",
          "name": "latitude",
          "type": "int256"
        },
        {
          "internalType": "int256",
          "name": "longitude",
          "type": "int256"
        },
        {
          "internalType": "uint128",
          "name": "poolId",
          "type": "uint128"
        },
        {
          "internalType": "address",
          "name": "creator",
          "type": "address"
        }
      ],
      "stateMutability": "view",
      "type": "function"
    },
    {
      "inputs": [],
      "name": "owner",
      "outputs": [
        {
          "internalType": "address",
          "name": "",
          "type": "address"
        }
      ],
      "stateMutability": "view",
      "type": "function"
    },
    {
      "inputs": [],
      "name": "pause",
      "outputs": [],
      "stateMutability": "nonpayable",
      "type": "function"
    },
    {
      "inputs": [],
      "name": "paused",
      "outputs": [
        {
          "internalType": "bool",
          "name": "",
          "type": "bool"
        }
      ],
      "stateMutability": "view",
      "type": "function"
    },
    {
      "inputs": [
        {
          "internalType": "uint256",
          "name": "",
          "type": "uint256"
        },
        {
          "internalType": "address",
          "name": "",
          "type": "address"
        }
      ],
      "name": "positions",
      "outputs": [
        {
          "internalType": "uint128",
          "name": "yesShares",
          "type": "uint128"
        },
        {
          "internalType": "uint128",
          "name": "noShares",
          "type": "uint128"
        },
        {
          "internalType": "uint128",
          "name": "stakedAmount",
          "type": "uint128"
        },
        {
          "internalType": "uint64",
          "name": "lastInteractionTime",
          "type": "uint64"
        },
        {
          "internalType": "bool",
          "name": "hasClaimedRewards",
          "type": "bool"
        }
      ],
      "stateMutability": "view",
      "type": "function"
    },
    {
      "inputs": [],
      "name": "renounceOwnership",
      "outputs": [],
      "stateMutability": "nonpayable",
      "type": "function"
    },
    {
      "inputs": [
        {
          "internalType": "uint256",
          "name": "_marketId",
          "type": "uint256"
        },
        {
          "internalType": "bool",
          "name": "_outcome",
          "type": "bool"
        }
      ],
      "name": "resolveMarket",
      "outputs": [],
      "stateMutability": "nonpayable",
      "type": "function"
    },
    {
      "inputs": [
        {
          "internalType": "uint256",
          "name": "_marketId",
          "type": "uint256"
        },
        {
          "internalType": "bool",
          "name": "_isYes",
          "type": "bool"
        },
        {
          "internalType": "uint256",
          "name": "_shares",
          "type": "uint256"
        }
      ],
      "name": "tradeShares",
      "outputs": [],
      "stateMutability": "payable",
      "type": "function"
    },
    {
      "inputs": [
        {
          "internalType": "address",
          "name": "newOwner",
          "type": "address"
        }
      ],
      "name": "transferOwnership",
      "outputs": [],
      "stateMutability": "nonpayable",
      "type": "function"
    },
    {
      "inputs": [],
      "name": "unpause",
      "outputs": [],
      "stateMutability": "nonpayable",
      "type": "function"
    },
    {
      "stateMutability": "payable",
      "type": "receive"
    }
  ],
  "transactionHash": "0x3a671fc19b42f1c6158292988b4f17bfe1d03b4293c455d4ea8b6f1165c15e52",
  "args": [
    "0x164D9c6f5ED768cDf7b54564970346b5D47639e2",
    "0xC2679fBD37d54388Ce493F1DB75320D236e1815e",
    "0xd5f095641d19dda36e364962d2893c80e086b6a8c34d0e1ae3a72f92118f50c8"
  ],
  "numDeployments": 2,
  "solcInputHash": "a23a93314ae57d97626f9e74b067d0d3",
  "bytecode": "0x60a060405234801561001057600080fd5b5060405161262838038061262883398101604081905261002f916100f9565b826001600160a01b03811661005e57604051631e4fbdf760e01b81526000600482015260240160405180910390fd5b6100678161008d565b50600180556002805460ff191690556001600160a01b0390911660805260085550610135565b600080546001600160a01b038381166001600160a01b0319831681178455604051919092169283917f8be0079c531659141344cd1fd0a4f28419497f9722a3daafe3b4186f6b6457e09190a35050565b80516001600160a01b03811681146100f457600080fd5b919050565b60008060006060848603121561010e57600080fd5b610117846100dd565b9250610125602085016100dd565b9150604084015190509250925092565b6080516124d8610150600039600061086e01526124d86000f3fe60806040526004361061010d5760003560e01c80638456cb5911610095578063e8b9bda711610064578063e8b9bda71461044e578063eb44fdd314610461578063ec97908214610490578063f2fde38b146104a6578063f8a9482f146104c657600080fd5b80638456cb59146102d5578063869da9db146102ea5780638da5cb5b14610372578063e684d7181461039a57600080fd5b80633f4ba83a116100dc5780633f4ba83a1461023a5780634ea41ded1461024f57806357bde4461461027d5780635c975abb1461029d578063715018a6146102c057600080fd5b806301e9772c146101195780630962ef79146101b157806320e7dbee146101d35780633f4337e61461020857600080fd5b3661011457005b600080fd5b34801561012557600080fd5b50610170610134366004611d03565b6005602052600090815260409020805460018201546002830154600390930154919290916001600160801b03909116906001600160a01b031684565b6040516101a8949392919093845260208401929092526001600160801b031660408301526001600160a01b0316606082015260800190565b60405180910390f35b3480156101bd57600080fd5b506101d16101cc366004611d03565b61058f565b005b3480156101df57600080fd5b506101f36101ee366004611deb565b6107d1565b604080519283526020830191909152016101a8565b34801561021457600080fd5b50610228610223366004611d03565b610900565b6040516101a896959493929190611efc565b34801561024657600080fd5b506101d1610ae4565b34801561025b57600080fd5b5061026f61026a366004611deb565b610af6565b6040519081526020016101a8565b34801561028957600080fd5b506101d1610298366004611f61565b61105a565b3480156102a957600080fd5b5060025460ff1660405190151581526020016101a8565b3480156102cc57600080fd5b506101d161118e565b3480156102e157600080fd5b506101d16111a0565b3480156102f657600080fd5b5061030a610305366004611fa4565b6111b0565b6040516101a89190600060a0820190506001600160801b0383511682526001600160801b0360208401511660208301526001600160801b0360408401511660408301526001600160401b03606084015116606083015260808301511515608083015292915050565b34801561037e57600080fd5b506000546040516001600160a01b0390911681526020016101a8565b3480156103a657600080fd5b5061040c6103b5366004611fa4565b6006602090815260009283526040808420909152908252902080546001909101546001600160801b0380831692600160801b90819004821692918216919081046001600160401b031690600160c01b900460ff1685565b604080516001600160801b039687168152948616602086015292909416918301919091526001600160401b03166060820152901515608082015260a0016101a8565b6101d161045c366004611fc7565b611260565b34801561046d57600080fd5b5061048161047c366004611d03565b611693565b6040516101a893929190612084565b34801561049c57600080fd5b5061026f60075481565b3480156104b257600080fd5b506101d16104c1366004612164565b611a5d565b3480156104d257600080fd5b5061053c6104e1366004611d03565b6004602052600090815260409020805460018201546002909201546001600160801b0380831693600160801b9384900482169382821693918190048316928216919081046001600160401b031690600160c01b900460ff1687565b604080516001600160801b039889168152968816602088015294871694860194909452918516606085015290931660808301526001600160401b0390921660a082015290151560c082015260e0016101a8565b610597611a98565b6000818152600360209081526040808320600683528184203385529092529091206002820154600160401b900460ff1661060e5760405162461bcd60e51b815260206004820152601360248201527213585c9ad95d081b9bdd081c995cdbdb1d9959606a1b60448201526064015b60405180910390fd5b6001810154600160c01b900460ff161561065c5760405162461bcd60e51b815260206004820152600f60248201526e105b1c9958591e4818db185a5b5959608a1b6044820152606401610605565b60018101546001600160801b03166106a15760405162461bcd60e51b81526020600482015260086024820152674e6f207374616b6560c01b6044820152606401610605565b60006106ad8433611ac2565b9050600081116106eb5760405162461bcd60e51b8152602060048201526009602482015268139bc81c995dd85c9960ba1b6044820152606401610605565b60018201805460ff60c01b1916600160c01b179055604051600090339083908381818185875af1925050503d8060008114610742576040519150601f19603f3d011682016040523d82523d6000602084013e610747565b606091505b505090508061078a5760405162461bcd60e51b815260206004820152600f60248201526e151c985b9cd9995c8819985a5b1959608a1b6044820152606401610605565b604051828152339086907f3300bdb359cfb956935bca32e9db727413eab1ca84341f2e36caea85bb7969689060200160405180910390a3505050506107ce60018055565b50565b6000806107e48a8a8a8a8a8a8a8a610af6565b91506000828b8b8b8b8b8b6000806000801b60405160200161080f9a99989796959493929190612186565b60408051601f1981840301815260c08301825260008084526020848101829052600185850152606085018290526080850183905260a0850191909152825180840184526008548152908101849052915163f17325e760e01b81529093507f00000000000000000000000000000000000000000000000000000000000000006001600160a01b03169063f17325e7906108ab9084906004016121fc565b6020604051808303816000875af11580156108ca573d6000803e3d6000fd5b505050506040513d601f19601f820116820180604052508101906108ee919061227e565b93505050509850989650505050505050565b60036020526000908152604090208054819061091b90612297565b80601f016020809104026020016040519081016040528092919081815260200182805461094790612297565b80156109945780601f1061096957610100808354040283529160200191610994565b820191906000526020600020905b81548152906001019060200180831161097757829003601f168201915b5050505050908060010180546109a990612297565b80601f01602080910402602001604051908101604052809291908181526020018280546109d590612297565b8015610a225780601f106109f757610100808354040283529160200191610a22565b820191906000526020600020905b815481529060010190602001808311610a0557829003601f168201915b505050600284015460038501805494956001600160401b0383169560ff600160401b850481169650600160481b909404909316935091610a6190612297565b80601f0160208091040260200160405190810160405280929190818152602001828054610a8d90612297565b8015610ada5780601f10610aaf57610100808354040283529160200191610ada565b820191906000526020600020905b815481529060010190602001808311610abd57829003601f168201915b5050505050905086565b610aec611bb0565b610af4611bdd565b565b6000610b00611c2f565b610b08611a98565b60008951118015610b1b57506064895111155b610b765760405162461bcd60e51b815260206004820152602660248201527f5469746c65206c656e677468206d757374206265206265747765656e2031206160448201526506e64203130360d41b6064820152608401610605565b6101f488511115610bc05760405162461bcd60e51b81526020600482015260146024820152734465736372697074696f6e20746f6f206c6f6e6760601b6044820152606401610605565b610bcc42610e106122e7565b876001600160401b031611610c3a5760405162461bcd60e51b815260206004820152602e60248201527f456e642074696d65206d757374206265206174206c65617374203120686f757260448201526d20696e207468652066757475726560901b6064820152608401610605565b64e8d4a51000836001600160801b031610158015610c6a5750816001600160801b0316836001600160801b031611155b610cac5760405162461bcd60e51b8152602060048201526013602482015272496e76616c6964207374616b652072616e676560681b6044820152606401610605565b68056bc75e2d63100000826001600160801b03161115610d035760405162461bcd60e51b815260206004820152601260248201527109ac2f040e6e8c2d6ca40e8dede40d0d2ced60731b6044820152606401610605565b6804e1003b28d927ffff198512158015610d2657506804e1003b28d92800008513155b610d655760405162461bcd60e51b815260206004820152601060248201526f496e76616c6964206c6174697475646560801b6044820152606401610605565b6809c2007651b24fffff198412158015610d8857506809c2007651b25000008413155b610dc85760405162461bcd60e51b8152602060048201526011602482015270496e76616c6964206c6f6e67697475646560781b6044820152606401610605565b60078054906000610dd8836122fa565b90915550506007546040805160c0810182528b815260208082018c90526001600160401b038b16828401526000606083018190528a1515608084015260a083018d905284815260039091529190912081518190610e359082612361565b5060208201516001820190610e4a9082612361565b506040820151600282018054606085015160808601511515600160481b0269ff00000000000000000019911515600160401b0268ffffffffffffffffff199093166001600160401b0390951694909417919091171691909117905560a08201516003820190610eb99082612361565b50506040805160e081018252600080825260208083018281528385018381526001600160801b038b811660608088019182528c83166080808a0191825260a08a0189815260c08b018a81528e8b5260048a528c8b209b519851988716600160801b9988168a02178c55965194519486169486168802949094176001808c0191909155915160029a8b018054955197519187166001600160c01b0319909616959095176001600160401b039097169097029590951760ff60c01b1916600160c01b9615159690960295909517909155875192830188528e83528285018e8152838901878152339285018381528c8952600590975296899020935184555193830193909355935194810180546fffffffffffffffffffffffffffffffff1916959094169490941790925551600390920180546001600160a01b0319166001600160a01b0390931692909217909155905190915082907f03e783e31593f59fda73a59d05e2525d610a533995cce4d4750186c3b6bf80bb9061103b908e908d9061241f565b60405180910390a3905061104e60018055565b98975050505050505050565b611062611bb0565b60008281526003602052604090206002810154600160401b900460ff16156110bf5760405162461bcd60e51b815260206004820152601060248201526f105b1c9958591e481c995cdbdb1d995960821b6044820152606401610605565b60028101546001600160401b03164210156111085760405162461bcd60e51b8152602060048201526009602482015268546f6f206561726c7960b81b6044820152606401610605565b6002808201805468ff00000000000000001916600160401b179055600084815260046020526040908190209091018054841515600160c01b0260ff60c01b199091161790555183907f4927fe38919783250023d27e65a3e56b6b5c3e49364e51674a41ef08d62460d99061118190851515815260200190565b60405180910390a2505050565b611196611bb0565b610af46000611c53565b6111a8611bb0565b610af4611ca3565b6040805160a0810182526000808252602082018190529181018290526060810182905260808101919091525060008281526006602090815260408083206001600160a01b0385168452825291829020825160a08101845281546001600160801b038082168352600160801b918290048116948301949094526001909201549283169381019390935281046001600160401b03166060830152600160c01b900460ff16151560808201525b92915050565b611268611c2f565b611270611a98565b60008311801561128257506007548311155b6112bf5760405162461bcd60e51b815260206004820152600e60248201526d125b9d985b1a59081b585c9ad95d60921b6044820152606401610605565b600081116113075760405162461bcd60e51b8152602060048201526015602482015274125b9d985b1a59081cda185c995cc8185b5bdd5b9d605a1b6044820152606401610605565b64e8d4a5100034101561134c5760405162461bcd60e51b815260206004820152600d60248201526c5374616b6520746f6f206c6f7760981b6044820152606401610605565b68056bc75e2d631000003411156113965760405162461bcd60e51b815260206004820152600e60248201526d0a6e8c2d6ca40e8dede40d0d2ced60931b6044820152606401610605565b6000838152600360209081526040808320600483528184206006845282852033865290935292206002830154600160401b900460ff161561140b5760405162461bcd60e51b815260206004820152600f60248201526e13585c9ad95d081c995cdbdb1d9959608a1b6044820152606401610605565b60028301546001600160401b031642106114565760405162461bcd60e51b815260206004820152600c60248201526b13585c9ad95d08195b99195960a21b6044820152606401610605565b84156114ec578154849083906000906114799084906001600160801b031661244a565b92506101000a8154816001600160801b0302191690836001600160801b03160217905550838160000160008282829054906101000a90046001600160801b03166114c3919061244a565b92506101000a8154816001600160801b0302191690836001600160801b0316021790555061157f565b815484908390601090611510908490600160801b90046001600160801b031661244a565b92506101000a8154816001600160801b0302191690836001600160801b03160217905550838160000160108282829054906101000a90046001600160801b031661155a919061244a565b92506101000a8154816001600160801b0302191690836001600160801b031602179055505b60018201805434919060009061159f9084906001600160801b031661244a565b92506101000a8154816001600160801b0302191690836001600160801b03160217905550348160010160008282829054906101000a90046001600160801b03166115e9919061244a565b82546001600160801b039182166101009390930a928302919092021990911617905550600181810180546001600160401b034216600160801b0267ffffffffffffffff60801b19909116179055604080518715158152602081018790523481830152606081019290925251339188917f2cd7ee0d33df31f2945642a6bc6c635f250369c95e28908a7d51311b715df8489181900360800190a350505061168e60018055565b505050565b6116d96040518060c00160405280606081526020016060815260200160006001600160401b03168152602001600015158152602001600015158152602001606081525090565b6040805160e081018252600080825260208083018290528284018290526060808401839052608080850184905260a0850184905260c08501849052855190810186528381529182018390529381018290529283015290831580159061174057506007548411155b61177d5760405162461bcd60e51b815260206004820152600e60248201526d125b9d985b1a59081b585c9ad95d60921b6044820152606401610605565b600084815260036020908152604080832060048352818420600590935292819020815160c0810190925283549091908490829082906117bb90612297565b80601f01602080910402602001604051908101604052809291908181526020018280546117e790612297565b80156118345780601f1061180957610100808354040283529160200191611834565b820191906000526020600020905b81548152906001019060200180831161181757829003601f168201915b5050505050815260200160018201805461184d90612297565b80601f016020809104026020016040519081016040528092919081815260200182805461187990612297565b80156118c65780601f1061189b576101008083540402835291602001916118c6565b820191906000526020600020905b8154815290600101906020018083116118a957829003601f168201915b505050918352505060028201546001600160401b038116602083015260ff600160401b8204811615156040840152600160481b909104161515606082015260038201805460809092019161191990612297565b80601f016020809104026020016040519081016040528092919081815260200182805461194590612297565b80156119925780601f1061196757610100808354040283529160200191611992565b820191906000526020600020905b81548152906001019060200180831161197557829003601f168201915b5050509190925250506040805160e08101825285546001600160801b038082168352600160801b9182900481166020808501919091526001808a015480841686880152849004831660608087019190915260029a8b01548085166080808901919091529581046001600160401b031660a0880152600160c01b900460ff16151560c0870152865194850187528954855290890154918401919091529787015416928101929092526003909401546001600160a01b031694810194909452509790965090945092505050565b611a65611bb0565b6001600160a01b038116611a8f57604051631e4fbdf760e01b815260006004820152602401610605565b6107ce81611c53565b600260015403611abb57604051633ee5aeb560e01b815260040160405180910390fd5b6002600155565b6000828152600460209081526040808320600683528184206001600160a01b0386168552909252822060028201548390600160c01b900460ff16611b17578154600160801b90046001600160801b0316611b23565b81546001600160801b03165b6001600160801b0316905080600003611b42576000935050505061125a565b6002830154600090600160c01b900460ff16611b6f578354600160801b90046001600160801b0316611b7b565b83546001600160801b03165b60018501546001600160801b0391821692508291611b9b91859116612469565b611ba59190612480565b979650505050505050565b6000546001600160a01b03163314610af45760405163118cdaa760e01b8152336004820152602401610605565b611be5611ce0565b6002805460ff191690557f5db9ee0a495bf2e6ff9c91a7834c1ba4fdd244a5e8aa4e537bd38aeae4b073aa335b6040516001600160a01b03909116815260200160405180910390a1565b60025460ff1615610af45760405163d93c066560e01b815260040160405180910390fd5b600080546001600160a01b038381166001600160a01b0319831681178455604051919092169283917f8be0079c531659141344cd1fd0a4f28419497f9722a3daafe3b4186f6b6457e09190a35050565b611cab611c2f565b6002805460ff191660011790557f62e78cea01bee320cd4e420270b5ea74000d11b0c9f74754ebdbfc544b05a258611c123390565b60025460ff16610af457604051638dfc202b60e01b815260040160405180910390fd5b600060208284031215611d1557600080fd5b5035919050565b634e487b7160e01b600052604160045260246000fd5b600082601f830112611d4357600080fd5b81356001600160401b03811115611d5c57611d5c611d1c565b604051601f8201601f19908116603f011681016001600160401b0381118282101715611d8a57611d8a611d1c565b604052818152838201602001851015611da257600080fd5b816020850160208301376000918101602001919091529392505050565b80358015158114611dcf57600080fd5b919050565b80356001600160801b0381168114611dcf57600080fd5b600080600080600080600080610100898b031215611e0857600080fd5b88356001600160401b03811115611e1e57600080fd5b611e2a8b828c01611d32565b98505060208901356001600160401b03811115611e4657600080fd5b611e528b828c01611d32565b97505060408901356001600160401b0381168114611e6f57600080fd5b9550611e7d60608a01611dbf565b94506080890135935060a08901359250611e9960c08a01611dd4565b9150611ea760e08a01611dd4565b90509295985092959890939650565b6000815180845260005b81811015611edc57602081850181015186830182015201611ec0565b506000602082860101526020601f19601f83011685010191505092915050565b60c081526000611f0f60c0830189611eb6565b8281036020840152611f218189611eb6565b90506001600160401b03871660408401528515156060840152841515608084015282810360a0840152611f548185611eb6565b9998505050505050505050565b60008060408385031215611f7457600080fd5b82359150611f8460208401611dbf565b90509250929050565b80356001600160a01b0381168114611dcf57600080fd5b60008060408385031215611fb757600080fd5b82359150611f8460208401611f8d565b600080600060608486031215611fdc57600080fd5b83359250611fec60208501611dbf565b929592945050506040919091013590565b6001600160801b0381511682526001600160801b0360208201511660208301526001600160801b0360408201511660408301526001600160801b0360608201511660608301526001600160801b03608082015116608083015260a081015161207060a08401826001600160401b03169052565b5060c081015161168e60c084018215159052565b61018081526000845160c06101808401526120a3610240840182611eb6565b9050602086015161017f19848303016101a08501526120c28282611eb6565b9150506001600160401b036040870151166101c0840152606086015115156101e08401526080860151151561020084015260a086015161017f19848303016102208501526121108282611eb6565b925050506121216020830185611ffd565b8251610100830152602083015161012083015260408301516001600160801b031661014083015260608301516001600160a01b0316610160830152949350505050565b60006020828403121561217657600080fd5b61217f82611f8d565b9392505050565b8a8152610140602082015260006121a161014083018c611eb6565b82810360408401526121b3818c611eb6565b6001600160401b039a909a1660608401525050951515608087015260a086019490945260c085019290925260ff1660e08401521515610100830152610120909101529392505050565b60208152815160208201526000602083015160408084015260018060a01b0381511660608401526001600160401b0360208201511660808401526040810151151560a0840152606081015160c0840152608081015160c060e0850152612266610120850182611eb6565b905060a0820151610100850152809250505092915050565b60006020828403121561229057600080fd5b5051919050565b600181811c908216806122ab57607f821691505b6020821081036122cb57634e487b7160e01b600052602260045260246000fd5b50919050565b634e487b7160e01b600052601160045260246000fd5b8082018082111561125a5761125a6122d1565b60006001820161230c5761230c6122d1565b5060010190565b601f82111561168e57806000526020600020601f840160051c8101602085101561233a5750805b601f840160051c820191505b8181101561235a5760008155600101612346565b5050505050565b81516001600160401b0381111561237a5761237a611d1c565b61238e816123888454612297565b84612313565b6020601f8211600181146123c257600083156123aa5750848201515b600019600385901b1c1916600184901b17845561235a565b600084815260208120601f198516915b828110156123f257878501518255602094850194600190920191016123d2565b50848210156124105786840151600019600387901b60f8161c191681555b50505050600190811b01905550565b6040815260006124326040830185611eb6565b90506001600160401b03831660208301529392505050565b6001600160801b03818116838216019081111561125a5761125a6122d1565b808202811582820484141761125a5761125a6122d1565b60008261249d57634e487b7160e01b600052601260045260246000fd5b50049056fea26469706673582212206f77b201fd55992be5c01efacd9efafc173dc3bf4a769b42aaf2aa58b7a2def964736f6c634300081b0033",
  "devdoc": {
    "details": "Advanced prediction market for public goods and environmental projects",
    "errors": {
      "EnforcedPause()": [
        {
          "details": "The operation failed because the contract is paused."
        }
      ],
      "ExpectedPause()": [
        {
          "details": "The operation failed because the contract is not paused."
        }
      ],
      "OwnableInvalidOwner(address)": [
        {
          "details": "The owner is not a valid owner account. (eg. `address(0)`)"
        }
      ],
      "OwnableUnauthorizedAccount(address)": [
        {
          "details": "The caller account is not authorized to perform an operation."
        }
      ],
      "ReentrancyGuardReentrantCall()": [
        {
          "details": "Unauthorized reentrant call."
        }
      ]
    },
    "events": {
      "Paused(address)": {
        "details": "Emitted when the pause is triggered by `account`."
      },
      "Unpaused(address)": {
        "details": "Emitted when the pause is lifted by `account`."
      }
    },
    "kind": "dev",
    "methods": {
      "owner()": {
        "details": "Returns the address of the current owner."
      },
      "paused()": {
        "details": "Returns true if the contract is paused, and false otherwise."
      },
      "renounceOwnership()": {
        "details": "Leaves the contract without owner. It will not be possible to call `onlyOwner` functions. Can only be called by the current owner. NOTE: Renouncing ownership will leave the contract without an owner, thereby disabling any functionality that is only available to the owner."
      },
      "transferOwnership(address)": {
        "details": "Transfers ownership of the contract to a new account (`newOwner`). Can only be called by the current owner."
      }
    },
    "title": "PerennialPrediction",
    "version": 1
  },
  "userdoc": {
    "kind": "user",
    "methods": {},
    "version": 1
  },
  "storageLayout": {
    "storage": [
      {
        "astId": 504,
        "contract": "contracts/perennialprediction.sol:perennialprediction",
        "label": "_owner",
        "offset": 0,
        "slot": "0",
        "type": "t_address"
      },
      {
        "astId": 879,
        "contract": "contracts/perennialprediction.sol:perennialprediction",
        "label": "_status",
        "offset": 0,
        "slot": "1",
        "type": "t_uint256"
      },
      {
        "astId": 760,
        "contract": "contracts/perennialprediction.sol:perennialprediction",
        "label": "_paused",
        "offset": 0,
        "slot": "2",
        "type": "t_bool"
      },
      {
        "astId": 1403,
        "contract": "contracts/perennialprediction.sol:perennialprediction",
        "label": "marketCores",
        "offset": 0,
        "slot": "3",
        "type": "t_mapping(t_uint256,t_struct(MarketCore)1325_storage)"
      },
      {
        "astId": 1408,
        "contract": "contracts/perennialprediction.sol:perennialprediction",
        "label": "marketData",
        "offset": 0,
        "slot": "4",
        "type": "t_mapping(t_uint256,t_struct(MarketData)1340_storage)"
      },
      {
        "astId": 1413,
        "contract": "contracts/perennialprediction.sol:perennialprediction",
        "label": "marketLocations",
        "offset": 0,
        "slot": "5",
        "type": "t_mapping(t_uint256,t_struct(MarketLocation)1349_storage)"
      },
      {
        "astId": 1420,
        "contract": "contracts/perennialprediction.sol:perennialprediction",
        "label": "positions",
        "offset": 0,
        "slot": "6",
        "type": "t_mapping(t_uint256,t_mapping(t_address,t_struct(UserPosition)1360_storage))"
      },
      {
        "astId": 1422,
        "contract": "contracts/perennialprediction.sol:perennialprediction",
        "label": "marketCount",
        "offset": 0,
        "slot": "7",
        "type": "t_uint256"
      },
      {
        "astId": 1427,
        "contract": "contracts/perennialprediction.sol:perennialprediction",
        "label": "schemaUID",
        "offset": 0,
        "slot": "8",
        "type": "t_bytes32"
      }
    ],
    "types": {
      "t_address": {
        "encoding": "inplace",
        "label": "address",
        "numberOfBytes": "20"
      },
      "t_bool": {
        "encoding": "inplace",
        "label": "bool",
        "numberOfBytes": "1"
      },
      "t_bytes32": {
        "encoding": "inplace",
        "label": "bytes32",
        "numberOfBytes": "32"
      },
      "t_int256": {
        "encoding": "inplace",
        "label": "int256",
        "numberOfBytes": "32"
      },
      "t_mapping(t_address,t_struct(UserPosition)1360_storage)": {
        "encoding": "mapping",
        "key": "t_address",
        "label": "mapping(address => struct perennialprediction.UserPosition)",
        "numberOfBytes": "32",
        "value": "t_struct(UserPosition)1360_storage"
      },
      "t_mapping(t_uint256,t_mapping(t_address,t_struct(UserPosition)1360_storage))": {
        "encoding": "mapping",
        "key": "t_uint256",
        "label": "mapping(uint256 => mapping(address => struct perennialprediction.UserPosition))",
        "numberOfBytes": "32",
        "value": "t_mapping(t_address,t_struct(UserPosition)1360_storage)"
      },
      "t_mapping(t_uint256,t_struct(MarketCore)1325_storage)": {
        "encoding": "mapping",
        "key": "t_uint256",
        "label": "mapping(uint256 => struct perennialprediction.MarketCore)",
        "numberOfBytes": "32",
        "value": "t_struct(MarketCore)1325_storage"
      },
      "t_mapping(t_uint256,t_struct(MarketData)1340_storage)": {
        "encoding": "mapping",
        "key": "t_uint256",
        "label": "mapping(uint256 => struct perennialprediction.MarketData)",
        "numberOfBytes": "32",
        "value": "t_struct(MarketData)1340_storage"
      },
      "t_mapping(t_uint256,t_struct(MarketLocation)1349_storage)": {
        "encoding": "mapping",
        "key": "t_uint256",
        "label": "mapping(uint256 => struct perennialprediction.MarketLocation)",
        "numberOfBytes": "32",
        "value": "t_struct(MarketLocation)1349_storage"
      },
      "t_string_storage": {
        "encoding": "bytes",
        "label": "string",
        "numberOfBytes": "32"
      },
      "t_struct(MarketCore)1325_storage": {
        "encoding": "inplace",
        "label": "struct perennialprediction.MarketCore",
        "members": [
          {
            "astId": 1314,
            "contract": "contracts/perennialprediction.sol:perennialprediction",
            "label": "title",
            "offset": 0,
            "slot": "0",
            "type": "t_string_storage"
          },
          {
            "astId": 1316,
            "contract": "contracts/perennialprediction.sol:perennialprediction",
            "label": "description",
            "offset": 0,
            "slot": "1",
            "type": "t_string_storage"
          },
          {
            "astId": 1318,
            "contract": "contracts/perennialprediction.sol:perennialprediction",
            "label": "endTime",
            "offset": 0,
            "slot": "2",
            "type": "t_uint64"
          },
          {
            "astId": 1320,
            "contract": "contracts/perennialprediction.sol:perennialprediction",
            "label": "isResolved",
            "offset": 8,
            "slot": "2",
            "type": "t_bool"
          },
          {
            "astId": 1322,
            "contract": "contracts/perennialprediction.sol:perennialprediction",
            "label": "isHyperLocal",
            "offset": 9,
            "slot": "2",
            "type": "t_bool"
          },
          {
            "astId": 1324,
            "contract": "contracts/perennialprediction.sol:perennialprediction",
            "label": "marketType",
            "offset": 0,
            "slot": "3",
            "type": "t_string_storage"
          }
        ],
        "numberOfBytes": "128"
      },
      "t_struct(MarketData)1340_storage": {
        "encoding": "inplace",
        "label": "struct perennialprediction.MarketData",
        "members": [
          {
            "astId": 1327,
            "contract": "contracts/perennialprediction.sol:perennialprediction",
            "label": "yesShares",
            "offset": 0,
            "slot": "0",
            "type": "t_uint128"
          },
          {
            "astId": 1329,
            "contract": "contracts/perennialprediction.sol:perennialprediction",
            "label": "noShares",
            "offset": 16,
            "slot": "0",
            "type": "t_uint128"
          },
          {
            "astId": 1331,
            "contract": "contracts/perennialprediction.sol:perennialprediction",
            "label": "totalStake",
            "offset": 0,
            "slot": "1",
            "type": "t_uint128"
          },
          {
            "astId": 1333,
            "contract": "contracts/perennialprediction.sol:perennialprediction",
            "label": "minStake",
            "offset": 16,
            "slot": "1",
            "type": "t_uint128"
          },
          {
            "astId": 1335,
            "contract": "contracts/perennialprediction.sol:perennialprediction",
            "label": "maxStake",
            "offset": 0,
            "slot": "2",
            "type": "t_uint128"
          },
          {
            "astId": 1337,
            "contract": "contracts/perennialprediction.sol:perennialprediction",
            "label": "reputationRequired",
            "offset": 16,
            "slot": "2",
            "type": "t_uint64"
          },
          {
            "astId": 1339,
            "contract": "contracts/perennialprediction.sol:perennialprediction",
            "label": "outcome",
            "offset": 24,
            "slot": "2",
            "type": "t_bool"
          }
        ],
        "numberOfBytes": "96"
      },
      "t_struct(MarketLocation)1349_storage": {
        "encoding": "inplace",
        "label": "struct perennialprediction.MarketLocation",
        "members": [
          {
            "astId": 1342,
            "contract": "contracts/perennialprediction.sol:perennialprediction",
            "label": "latitude",
            "offset": 0,
            "slot": "0",
            "type": "t_int256"
          },
          {
            "astId": 1344,
            "contract": "contracts/perennialprediction.sol:perennialprediction",
            "label": "longitude",
            "offset": 0,
            "slot": "1",
            "type": "t_int256"
          },
          {
            "astId": 1346,
            "contract": "contracts/perennialprediction.sol:perennialprediction",
            "label": "poolId",
            "offset": 0,
            "slot": "2",
            "type": "t_uint128"
          },
          {
            "astId": 1348,
            "contract": "contracts/perennialprediction.sol:perennialprediction",
            "label": "creator",
            "offset": 0,
            "slot": "3",
            "type": "t_address"
          }
        ],
        "numberOfBytes": "128"
      },
      "t_struct(UserPosition)1360_storage": {
        "encoding": "inplace",
        "label": "struct perennialprediction.UserPosition",
        "members": [
          {
            "astId": 1351,
            "contract": "contracts/perennialprediction.sol:perennialprediction",
            "label": "yesShares",
            "offset": 0,
            "slot": "0",
            "type": "t_uint128"
          },
          {
            "astId": 1353,
            "contract": "contracts/perennialprediction.sol:perennialprediction",
            "label": "noShares",
            "offset": 16,
            "slot": "0",
            "type": "t_uint128"
          },
          {
            "astId": 1355,
            "contract": "contracts/perennialprediction.sol:perennialprediction",
            "label": "stakedAmount",
            "offset": 0,
            "slot": "1",
            "type": "t_uint128"
          },
          {
            "astId": 1357,
            "contract": "contracts/perennialprediction.sol:perennialprediction",
            "label": "lastInteractionTime",
            "offset": 16,
            "slot": "1",
            "type": "t_uint64"
          },
          {
            "astId": 1359,
            "contract": "contracts/perennialprediction.sol:perennialprediction",
            "label": "hasClaimedRewards",
            "offset": 24,
            "slot": "1",
            "type": "t_bool"
          }
        ],
        "numberOfBytes": "64"
      },
      "t_uint128": {
        "encoding": "inplace",
        "label": "uint128",
        "numberOfBytes": "16"
      },
      "t_uint256": {
        "encoding": "inplace",
        "label": "uint256",
        "numberOfBytes": "32"
      },
      "t_uint64": {
        "encoding": "inplace",
        "label": "uint64",
        "numberOfBytes": "8"
      }
    }
  }
}